:100000000C942A000C9447000C9447000C94470071
:100010000C9447000C9447000C9447000C943A1140
:100020000C9447000C9407110C9447000C94470063
:100030000C9447000C9447000C9447000C94470024
:100040000C9447000C9447000C9447000C94470014
:100050000C94470011241FBECFE5D8E0DEBFCDBF12
:1000600011E0A0E6B0E0EEEEF7E202C005900D92DE
:10007000AE37B107D9F711E0AEE7B1E001C01D928C
:10008000A639B107E1F70E9417070C94F5130C94F9
:100090000000EF92FF920F931F937B018C0120E0F1
:1000A00030E040E05FE40E94F50388238CF0C80153
:1000B000B70120E030E040E05FE40E94C1010E940F
:1000C00055049B01AC01205030404040504806C0D0
:1000D000C801B7010E9455049B01AC01B901CA01D6
:1000E0001F910F91FF90EF900895A0E0B0E0EBE733
:1000F000F0E00C94BE13DC012B01FA019C919230CC
:1001000008F439C1EB018881823008F433C194309E
:1001100069F4843009F02FC111969C91119789815F
:10012000981709F428C1A0E6B0E025C1843009F48D
:1001300021C18230A9F4923009F01DC19A01AD01AC
:1001400088E0EA010990AE01E90109929E0181501F
:10015000C1F7E201898111969C918923818308C1AD
:10016000923009F407C112962D903C901397EB0141
:100170008A819B811496AD90BD90CD90DC901797AD
:10018000EC80FD800E811F819101281B390BB90184
:1001900037FF04C066277727621B730B6032710537
:1001A0000CF061C0121613066CF537014801062EDB
:1001B00004C096948794779467940A94D2F721E0C8
:1001C00030E040E050E004C0220F331F441F551FB1
:1001D0006A95D2F721503040404050402E213F21B7
:1001E00040235123211531054105510521F021E01E
:1001F00030E040E050E079018A01E628F72808293C
:1002000019293CC0232BD1F1260E371E350146019A
:10021000062E04C096948794779467940A94D2F734
:1002200021E030E040E050E004C0220F331F441FC3
:10023000551F6A95D2F721503040404050402A2146
:100240003B214C215D21211531054105510521F04E
:1002500021E030E040E050E059016A01A628B728CB
:10026000C828D9280BC0821593052CF01C01AA249C
:10027000BB24650103C0EE24FF24870111969C91E5
:10028000D20111968C91981709F445C0992339F041
:10029000A80197012A193B094C095D0906C0A6016E
:1002A00095012E193F09400B510B57FD08C01182D3
:1002B0003382228224833583468357831DC081E0A5
:1002C00081833382228288279927DC01821B930B4A
:1002D000A40BB50B84839583A683B7830DC0220F2F
:1002E000331F441F551F24833583468357838281E0
:1002F000938101979383828324813581468157813D
:10030000DA01C9010197A109B1098F5F9F4FAF4F72
:10031000BF4328F30BC0918333822282EA0CFB1C7B
:100320000C1D1D1DE482F5820683178383E0808304
:10033000248135814681578157FF1AC0C901AA27F8
:1003400097FDA095BA2F81709070A070B0705695EF
:10035000479537952795822B932BA42BB52B848318
:100360009583A683B7838281938101969383828349
:10037000DF0101C0D201CD01CDB7DEB7E2E10C94BF
:10038000DA13A0E2B0E0E7ECF1E00C94CA13698361
:100390007A838B839C832D833E834F835887E9E048
:1003A000EE2EF12CEC0EFD1ECE010196B7010E943F
:1003B00046068E010F5E1F4FCE010596B8010E94C2
:1003C00046068A8991E089278A8BC701B801AE0168
:1003D000475E5F4F0E9475000E947105A096E6E09F
:1003E0000C94E613A0E2B0E0E8EFF1E00C94CA133D
:1003F00069837A838B839C832D833E834F835887C5
:10040000F9E0EF2EF12CEC0EFD1ECE010196B701A6
:100410000E9446068E010F5E1F4FCE010596B80161
:100420000E944606C701B801AE01475E5F4F0E94B9
:1004300075000E947105A096E6E00C94E613A0E218
:10044000B0E0E5E2F2E00C94BE1369837A838B831B
:100450009C832D833E834F835887CE010196BE0136
:10046000675F7F4F0E944606CE010596BE016F5E14
:100470007F4F0E9446069985923088F089898230A4
:10048000C8F0943019F4823051F404C0843029F457
:10049000923081F480E690E0C6C0923049F420E0CA
:1004A0009A858A89981321E02A87CE010996BBC0D4
:1004B000823049F420E09A858A89981321E02A8BBA
:1004C000CE014196B0C02D843E844F8458886D88FB
:1004D0007E888F88988CEE24FF248701AA24BB2471
:1004E000650140E050E060E070E0E0E0F0E0C10174
:1004F00081709070892BE9F0E60CF71C081D191D1E
:100500009A01AB012A0D3B1D4C1D5D1D80E090E062
:10051000A0E0B0E0E614F7040805190520F481E036
:1005200090E0A0E0B0E0BA01A901480F591F6A1F8E
:100530007B1FAA0CBB1CCC1CDD1C97FE08C081E0F5
:1005400090E0A0E0B0E0A82AB92ACA2ADB2A3196B6
:10055000E032F10549F0660C771C881C991C569412
:10056000479437942794C3CFFA85EA892B893C892D
:100570008B859C85280F391F2E5F3F4F17C0CA01FE
:1005800081709070892B61F016950795F794E79428
:1005900080E090E0A0E0B0E8E82AF92A0A2B1B2BC3
:1005A00076956795579547952F5F3F4F77FDE7CF36
:1005B0000CC0440F551F661F771F17FD4160EE0CDE
:1005C000FF1C001F111F21503040403090E05907A0
:1005D00090E0690790E4790760F32B8F3C8FDB0193
:1005E000CA018F779070A070B07080349105A1051A
:1005F000B10561F447FD0AC0E114F10401051105DC
:1006000029F0405C5F4F6F4F7F4F40781A8EFE1786
:1006100011F081E08A8F4D8F5E8F6F8F78A383E01A
:10062000898FCE0149960E947105A096E2E10C9453
:10063000DA13A8E1B0E0EFE1F3E00C94C6136983AC
:100640007A838B839C832D833E834F835887B9E0C5
:10065000EB2EF12CEC0EFD1ECE010196B7010E948F
:1006600046068E010F5E1F4FCE010596B8010E940F
:1006700046062985223008F47EC03989323010F4CC
:10068000B8017CC08A859A8989278A87243011F02D
:10069000223031F4231709F06EC060E670E06EC0BE
:1006A000343039F41D861E861F86188A1C861B86E8
:1006B00004C0323021F484E08987B7015FC02B8504
:1006C0003C858B899C89281B390B3C872B87ED84C3
:1006D000FE840F851889AD88BE88CF88D88CEA142F
:1006E000FB040C051D0540F4EE0CFF1C001F111F40
:1006F000215030403C872B8720E030E040E050E044
:1007000080E090E0A0E0B0E460E070E0EA14FB0478
:100710000C051D0540F0282B392B4A2B5B2BEA18C2
:10072000FB080C091D09B695A79597958795EE0CC2
:10073000FF1C001F111F6F5F7F4F6F31710531F775
:10074000DA01C9018F779070A070B0708034910584
:10075000A105B10561F427FD0AC0E114F10401050A
:10076000110529F0205C3F4F4F4F5F4F20782D87B8
:100770003E874F87588BBE01675F7F4FCB010E943A
:1007800071056896EAE00C94E213A8E1B0E0EBECA6
:10079000F3E00C94CA1369837A838B839C832D8343
:1007A0003E834F83588789E0E82EF12CEC0EFD1E26
:1007B000CE010196B7010E9446068E010F5E1F4FC3
:1007C000CE010596B8010E9446068985823040F028
:1007D0008989823028F0C701B8010E94BE0601C095
:1007E0008FEF6896E6E00C94E613A8E1B0E0EBEF3B
:1007F000F3E00C94CA1369837A838B839C832D83E3
:100800003E834F83588789E0E82EF12CEC0EFD1EC5
:10081000CE010196B7010E9446068E010F5E1F4F62
:10082000CE010596B8010E9446068985823040F0C7
:100830008989823028F0C701B8010E94BE0601C034
:100840008FEF6896E6E00C94E613A8E1B0E0EBE2E7
:10085000F4E00C94CA1369837A838B839C832D8381
:100860003E834F83588789E0E82EF12CEC0EFD1E65
:10087000CE010196B7010E9446068E010F5E1F4F02
:10088000CE010596B8010E9446068985823040F067
:100890008989823028F0C701B8010E94BE0601C0D4
:1008A00081E06896E6E00C94E613ACE0B0E0EBE59E
:1008B000F4E00C94CE1369837A838B839C83CE01FE
:1008C0000196BE016B5F7F4F0E9446068D8182308C
:1008D00061F1823050F1843021F48E81882351F10E
:1008E0002EC02F81388537FD20C06E812F31310514
:1008F0001CF06623F9F023C08EE190E0821B930B7D
:1009000029853A854B855C8504C056954795379572
:1009100027958A95D2F76623B1F05095409530958A
:1009200021953F4F4F4F5F4F0EC020E030E040E039
:1009300050E009C02FEF3FEF4FEF5FE704C020E02A
:1009400030E040E050E8B901CA012C96E2E00C9496
:10095000EA13A8E0B0E0EFEAF4E00C94C6137B01E0
:100960008C01611571058105910519F482E0898377
:1009700060C083E089838EE1C82ED12CDC82CB82DB
:10098000ED82FE820F831887C801B7010E942205FD
:10099000FC013197F7FF3BC0222733272E1B3F0B6B
:1009A00057016801022E04C0D694C794B794A79447
:1009B0000A94D2F740E050E060E070E081E090E01F
:1009C000A0E0B0E004C0880F991FAA1FBB1F2A95A2
:1009D000D2F70197A109B1098E219F21A023B1234C
:1009E0000097A105B10521F041E050E060E070E022
:1009F0004A295B296C297D294D835E836F83788723
:100A00008EE190E08E1B9F0B9C838B8312C03097EE
:100A100081F00E2E04C0EE0CFF1C001F111F0A9463
:100A2000D2F7ED82FE820F831887CE1ADF0ADC82AE
:100A3000CB821A82CE0101960E9471052896EAE0C7
:100A40000C94E213EF92FF920F931F937B018C01A2
:100A500080E0E81680E0F80681E0080780E01807EB
:100A600088F48FEFE816F1040105110531F028F044
:100A700088E090E0A0E0B0E017C080E090E0A0E067
:100A8000B0E012C080E0E81680E0F80680E00807D9
:100A900081E0180728F088E190E0A0E0B0E004C011
:100AA00080E190E0A0E0B0E020E230E040E050E003
:100AB000281B390B4A0B5B0B04C016950795F7945E
:100AC000E7948A95D2F7F701E859FF4F8081281BF8
:100AD000310941095109C9011F910F91FF90EF9010
:100AE0000895DF92EF92FF920F931F93FC01E48031
:100AF000F58006811781D1808081823048F480E0C2
:100B000090E0A0E1B0E0E82AF92A0A2B1B2BA5C04F
:100B1000843009F49FC0823021F4EE24FF24870141
:100B200005C0E114F1040105110519F4E0E0F0E05D
:100B300096C0628173819FEF623879070CF05BC0C9
:100B400022E83FEF261B370B2A3131052CF020E03D
:100B500030E040E050E02AC0B801A701022E04C0F6
:100B600076956795579547950A94D2F781E090E07E
:100B7000A0E0B0E004C0880F991FAA1FBB1F2A95F0
:100B8000D2F70197A109B1098E219F21A023B1239A
:100B90000097A105B10521F081E090E0A0E0B0E070
:100BA0009A01AB01282B392B4A2B5B2BDA01C901A7
:100BB0008F779070A070B07080349105A105B10559
:100BC00039F427FF09C0205C3F4F4F4F5F4F04C0EF
:100BD000215C3F4F4F4F5F4FE0E0F0E02030A0E05E
:100BE0003A07A0E04A07A0E45A0710F0E1E0F0E07D
:100BF00079018A0127C06038710564F5FB01E1586D
:100C0000FF4FD801C7018F779070A070B07080340B
:100C10009105A105B10539F4E7FE0DC080E490E02F
:100C2000A0E0B0E004C08FE390E0A0E0B0E0E80E08
:100C3000F91E0A1F1B1F17FF05C016950795F7948D
:100C4000E794319687E016950795F794E7948A958F
:100C5000D1F705C0EE24FF248701EFEFF0E06E2FFF
:100C6000679566276795902F9F77D794DD24D79453
:100C70008E2F8695492F462B582F5D29B701CA0123
:100C80001F910F91FF90EF90DF900895FC01DB0121
:100C9000408151812281622F6F7770E0221F2227CD
:100CA000221F9381892F880F822B282F30E0991FD4
:100CB0009927991F11969C93119721153105A9F534
:100CC000411551056105710511F482E037C082E8D4
:100CD0009FEF13969C938E9312979A01AB0167E056
:100CE000220F331F441F551F6A95D1F783E08C9361
:100CF0000DC0220F331F441F551F12968D919C91DA
:100D00001397019713969C938E931297203080E04F
:100D1000380780E0480780E4580758F314962D936D
:100D20003D934D935C93179708952F3F310579F4C8
:100D3000411551056105710519F484E08C930895FE
:100D400064FF03C081E08C9312C01C9210C02F5727
:100D5000304013963C932E93129783E08C9387E058
:100D6000440F551F661F771F8A95D1F7706414963C
:100D70004D935D936D937C93179708951F93DC01BA
:100D8000FB019C91923008F447C08081823008F4C6
:100D900043C0943051F411961C91843099F58181AF
:100DA000682F70E0611B71093FC0843021F09230E0
:100DB00031F48230B9F18181882389F12DC01196F7
:100DC0001C9111978230F1F081811817D9F4129695
:100DD0002D913C911397828193818217930794F010
:100DE00028173907BCF014968D919D910D90BC91F8
:100DF000A02D2481358146815781281739074A075C
:100E00005B0718F4112341F00AC082179307A40767
:100E1000B50740F4112319F061E070E005C06FEFF1
:100E20007FEF02C060E070E0CB011F910895DF9377
:100E3000CF93CDB7DEB7C055D0400FB6F894DEBF24
:100E40000FBECDBF9E01255D3F4F24963FAF2EAF15
:100E5000249786E791E026969FAF8EAF269797E07E
:100E600027969FAF27972696EEADFFAD2697008079
:100E700026962EAD3FAD26972F5F3F4F26963FAF6C
:100E80002EAF26972496EEADFFAD249700822496D0
:100E90002EAD3FAD24972F5F3F4F24963FAF2EAF2F
:100EA000249727963FAD2797315027963FAF279736
:100EB00027968FAD27978823B1F6CE018B960E9497
:100EC0008612FE01F2962996FFAFEEAF29972EE625
:100ED00031E02B963FAF2EAF2B9738E02C963FAFEB
:100EE0002C972B96EEADFFAD2B9700802B962EAD59
:100EF0003FAD2B972F5F3F4F2B963FAF2EAF2B97DA
:100F00002996EEADFFAD2997008229962EAD3FAD13
:100F100029972F5F3F4F29963FAF2EAF29972C96E9
:100F20003FAD2C9731502C963FAF2C972C968FAD20
:100F30002C978823B1F6CE01C2960E94E311FE01E0
:100F4000FA962E96FFAFEEAF2E9728E631E0609628
:100F50003FAF2EAF609736E061963FAF61976096E6
:100F6000EEADFFAD6097008060962EAD3FAD60970F
:100F70002F5F3F4F60963FAF2EAF60972E96EEAD3E
:100F8000FFAD2E9700822E962EAD3FAD2E972F5F90
:100F90003F4F2E963FAF2EAF2E9761963FAD619794
:100FA000315061963FAF619761968FAD619788230D
:100FB000B1F680EE9BE00E94D1110E94260C0E94A7
:100FC000FD0BAFE5B0E0EFE5F0E0808180688C9349
:100FD0000E9421138031E1F725E931E080E092E0C1
:100FE000B9010E94C70C80919501843909F095C020
:100FF00084E90E940A1310927F0189C080917F01C9
:10100000882F90E080509D4FAC0180917F01882F08
:1010100090E09C0120573E4FCA01B9010E94C70CC5
:1010200080E090E0A0E2B1E48FA398A7A9A7BAA7B7
:101030006FA178A589A59AA520E030E04AEF54E495
:101040000E941F02DC01CB018BA39CA3ADA3BEA316
:101050006BA17CA18DA19EA120E030E040E85FE380
:101060000E94250488232CF481E090E09AA389A3B0
:101070003FC06BA17CA18DA19EA120E03FEF4FE777
:1010800057E40E94C50318164CF56FA178A589A5F1
:101090009AA520E030E040E251E40E941F02DC010A
:1010A000CB01BC01CD010E944900DC01CB019AA318
:1010B00089A30FC088EC90E098A38F8F8F8D98A1A3
:1010C0000197F1F798A38F8F89A19AA101979AA30D
:1010D00089A389A19AA1009769F714C06BA17CA18B
:1010E0008DA19EA10E944900DC01CB019AA389A396
:1010F00089A19AA19E8F8D8F8D8D9E8D0197F1F77D
:101100009E8F8D8F80917F018F5F80937F01809173
:101110007F01853008F472CF94C085E90E940A13DC
:1011200080E00E945C0A81E00E945C0A0E94940BAD
:1011300080917E01882321F480E40E940A137CC000
:1011400080E30E940A1380E092E064E90E94860C2A
:1011500080E090E0A0E2B1E4898F9A8FAB8FBC8FE2
:10116000698D7A8D8B8D9C8D20E030E04AEF54E4C0
:101170000E941F02DC01CB018D8B9E8BAF8BB88F41
:101180006D897E898F89988D20E030E040E85FE3AB
:101190000E94250488232CF481E090E09C8B8B8BAB
:1011A0003FC06D897E898F89988D20E03FEF4FE7A2
:1011B00057E40E94C50318164CF5698D7A8D8B8D06
:1011C0009C8D20E030E040E251E40E941F02DC01EF
:1011D000CB01BC01CD010E944900DC01CB019C8BFD
:1011E0008B8B0FC088EC90E09A8B898B89899A89C8
:1011F0000197F1F79A8B898B8B899C8901979C8B3E
:101200008B8B8B899C89009769F714C06D897E89C7
:101210008F89988D0E944900DC01CB019C8B8B8BC0
:101220008B899C89988B8F878F8598890197F1F797
:10123000988B8F870E94BE0A80917E01882309F4D3
:101240006FCF80E90E940A130E94211380938401CA
:1012500080918401E82FF0E02296FFAFEEAF229755
:1012600022962EAD3FAD22972038310549F02296C7
:101270008EAD9FAD22978138910509F459C0E1CF19
:101280001092800182E00E945C0A0E94BA0B809159
:101290007E01882361F4809180018F5F80938001BB
:1012A00080918001833018F480E60E940A138091B7
:1012B0007E01882321F480918001833018F380918E
:1012C0008001833061F486E90E940A13CE01CA9638
:1012D0000E946D110E94EC0B0E94BB11B2CF80E501
:1012E0000E940A1383E90E940A13CE01CA960E9443
:1012F0006D110E945E0B0E94BB1182E90E940A13CD
:10130000CE01CA960E946D110E94700B0E94BB1103
:1013100081E90E940A13CE01CA960E946D110E94B3
:10132000820B0E94BB1180E060E00E94410C89CFDB
:101330001092800182E00E945C0A0E94BA0B8091A8
:101340007E01882361F4809180018F5F809380010A
:1013500080918001833018F480E60E940A13809106
:101360007E01882321F480918001833018F38091DD
:101370008001833061F486E90E940A13CE01CA9687
:101380000E946D110E94EC0B0E94BB115ACF80E5A8
:101390000E940A1380E00E945C0A81E00E945C0ABD
:1013A0000E94940B80917E01882321F480E40E94A6
:1013B0000A137CC080E30E940A1380E092E064E993
:1013C0000E94860C80E090E0A0E2B1E48B879C87CD
:1013D000AD87BE876B857C858D859E8520E030E05E
:1013E0004AEF54E40E941F02DC01CB018F839887EF
:1013F000A987BA876F81788589859A8520E030E052
:1014000040E85FE30E94250488232CF481E090E00B
:101410009E838D833FC06F81788589859A8520E082
:101420003FEF4FE757E40E94C50318164CF56B8554
:101430007C858D859E8520E030E040E251E40E946D
:101440001F02DC01CB01BC01CD010E944900DC017F
:10145000CB019E838D830FC088EC90E09C838B83AF
:101460008B819C810197F1F79C838B838D819E8179
:1014700001979E838D838D819E81009769F714C0AB
:101480006F81788589859A850E944900DC01CB01AE
:101490009E838D838D819E819A83898389819A81A0
:1014A0000197F1F79A8389830E94BE0A80917E0199
:1014B000882309F46FCFC5CE0F931F93DF93CF938B
:1014C00000D000D0CDB7DEB78A830E94211380936D
:1014D0008401809184018031E1F78A81282F30E0F6
:1014E0003C832B838B819C8181309105D9F02B81AA
:1014F0003C812230310541F18B819C810097A9F517
:1015000019820CC08981082F10E00E942113F80174
:10151000E057FE4F808389818F5F89838981853081
:1015200088F323C019820CC08981082F10E00E9423
:101530002113F801EA57FE4F808389818F5F8983E9
:101540008981853088F311C019820CC08981082FE8
:1015500010E00E942113F801E557FE4F8083898136
:101560008F5F89838981853088F30F900F900F906A
:101570000F90CF91DF911F910F910895DF93CF933B
:10158000CDB7DEB72F970FB6F894DEBF0FBECDBF35
:101590001F861F8686C08F85882F90E080509D4FC4
:1015A000AC018F85882F90E0FC01E057FE4F208131
:1015B000CA01622F0E94860C80E090E0A0E2B1E4B4
:1015C0008B879C87AD87BE876B857C858D859E8547
:1015D00020E030E04AEF54E40E941F02DC01CB011E
:1015E0008F839887A987BA876F81788589859A853F
:1015F00020E030E040E85FE30E94250488232CF4DB
:1016000081E090E09E838D833FC06F8178858985DE
:101610009A8520E03FEF4FE757E40E94C503181674
:101620004CF56B857C858D859E8520E030E040E221
:1016300051E40E941F02DC01CB01BC01CD010E94DC
:101640004900DC01CB019E838D830FC088EC90E0C4
:101650009C838B838B819C810197F1F79C838B8387
:101660008D819E8101979E838D838D819E810097C0
:1016700069F714C06F81788589859A850E94490031
:10168000DC01CB019E838D838D819E819A8389832A
:1016900089819A810197F1F79A8389838F858F5F7A
:1016A0008F878F85853008F476CF2F960FB6F89404
:1016B000DEBF0FBECDBFCF91DF910895DF93CF93F3
:1016C000CDB7DEB71092810104C081E064E60E94CC
:1016D000410C809181018F30C1F7CF91DF91089546
:1016E000DF93CF93CDB7DEB71092810104C080E0C5
:1016F00060E00E94410C809181018330C1F7CF915D
:10170000DF910895DF93CF93CDB7DEB710928101BB
:1017100004C082E064E60E94410C809181018F3018
:10172000C1F7CF91DF910895DF93CF930F92CDB79B
:10173000DEB781E080937E01198215C08981882FF0
:1017400090E0FC01E057FE4F20818981882F90E0D6
:10175000FC01EA57FE4F8081281711F010927E019C
:1017600089818F5F89838981853040F30F90CF9184
:10177000DF910895DF93CF930F92CDB7DEB781E06D
:1017800080937E01198215C08981882F90E0FC0129
:10179000E057FE4F20818981882F90E0FC01E557BA
:1017A000FE4F8081281711F010927E0189818F5F92
:1017B00089838981853040F30F90CF91DF9108951F
:1017C000DF93CF93CDB7DEB7809181018F5F809398
:1017D0008101CF91DF910895DF93CF93CDB7DEB72D
:1017E0000E940E0C10928101809181018C33E1F7EF
:1017F0000E941A0CCF91DF910895DF93CF93CDB75C
:10180000DEB783E067E041E00E94270D83E067E0F8
:1018100040E00E94220ECF91DF910895DF93CF9395
:10182000CDB7DEB783E067E041E00E94220ECF91A2
:10183000DF910895DF93CF93CDB7DEB783E067E004
:1018400040E00E94220ECF91DF910895DF93CF9365
:10185000CDB7DEB781E060E041E00E94270D81E076
:1018600061E041E00E94270D81E060E040E00E94DD
:10187000220E81E061E040E00E94220ECF91DF91D4
:101880000895DF93CF9300D000D0CDB7DEB7898322
:101890006A838981282F30E03C832B838B819C8154
:1018A00081309105A1F02B813C8122303105D1F0AE
:1018B0008B819C81009701F581E060E040E00E940F
:1018C000220E81E061E040E00E94220E15C081E01E
:1018D00060E040E00E94220E81E061E041E00E9471
:1018E000220E0AC081E060E041E00E94220E81E009
:1018F00061E040E00E94220E8A810E9495100F90C4
:101900000F900F900F90CF91DF910895DF93CF93B9
:1019100000D000D0CDB7DEB79A8389836B830E9455
:101920001F120E947712883011F01C8228C0898112
:101930009A8180709770880F892F881F990B9195D5
:10194000806A0E943A120E947712883111F01C823C
:1019500016C089810E943A120E947712883211F0D3
:101960001C820DC08B810E943A120E94771288322D
:1019700011F01C8204C00E942F1281E08C838C81A4
:101980000F900F900F900F90CF91DF910895DF93FC
:10199000CF9300D000D00F92CDB7DEB79A83898362
:1019A0007C836B830E941F120E947712883011F093
:1019B0001D8244C089819A8180709770880F892F19
:1019C000881F990B9195806A0E943A120E947712A3
:1019D000883111F01D8232C089810E943A120E9422
:1019E0007712883211F01D8229C00E941F120E94B6
:1019F0007712803111F01D8221C089819A81807017
:101A00009770880F892F881F990B9195816A0E9482
:101A10003A120E947712803411F01D820FC00E948A
:101A20006412EB81FC8180830E947712883511F06B
:101A30001D8204C00E942F1281E08D838D810F9042
:101A40000F900F900F900F90CF91DF910895DF933B
:101A5000CF93CDB7DEB727970FB6F894DEBF0FBE92
:101A6000CDBF89836A834B831F828A81893010F0BE
:101A700021E02F831E828981853010F031E03E8382
:101A80008F819E81892B91E08927882309F4D1C019
:101A90008981282F30E03D832C838C819D8181308A
:101AA000910509F443C02C813D81223031052CF48D
:101AB0008C819D81009771F0BCC02C813D812230CA
:101AC000310509F45FC08C819D818330910509F453
:101AD00085C0AFC08B818823A9F4AAE3B0E0EAE314
:101AE000F0E08081482F8A81282F30E081E090E06B
:101AF000022E02C0880F991F0A94E2F78095842372
:101B00008C9397C0AAE3B0E0EAE3F0E08081482F2D
:101B10008A81282F30E081E090E0022E02C0880FF9
:101B2000991F0A94E2F7842B8C9383C08B818823BE
:101B3000A9F4A7E3B0E0E7E3F0E08081482F8A81D1
:101B4000282F30E081E090E0022E02C0880F991F1C
:101B50000A94E2F7809584238C936BC0A7E3B0E0EE
:101B6000E7E3F0E08081482F8A81282F30E081E090
:101B700090E0022E02C0880F991F0A94E2F7842B8E
:101B80008C9357C08B818823A9F4A4E3B0E0E4E3ED
:101B9000F0E08081482F8A81282F30E081E090E0BA
:101BA000022E02C0880F991F0A94E2F780958423C1
:101BB0008C933FC0A4E3B0E0E4E3F0E08081482FE1
:101BC0008A81282F30E081E090E0022E02C0880F49
:101BD000991F0A94E2F7842B8C932BC08B81882366
:101BE000A9F4A1E3B0E0E1E3F0E08081482F8A812D
:101BF000282F30E081E090E0022E02C0880F991F6C
:101C00000A94E2F7809584238C9313C0A1E3B0E09B
:101C1000E1E3F0E08081482F8A81282F30E081E0E5
:101C200090E0022E02C0880F991F0A94E2F7842BDD
:101C30008C9327960FB6F894DEBF0FBECDBFCF9121
:101C4000DF910895DF93CF93CDB7DEB727970FB617
:101C5000F894DEBF0FBECDBF89836A834B831F829A
:101C60008981853010F021E02F831E828A8189309E
:101C700010F031E03E838F819E81892B91E089278E
:101C8000882309F4D1C08981282F30E03D832C833B
:101C90008C819D818130910509F443C02C813D8167
:101CA000223031052CF48C819D81009771F0BCC0ED
:101CB0002C813D812230310509F45FC08C819D81EA
:101CC0008330910509F485C0AFC08B818130A1F4C8
:101CD000ABE3B0E0EBE3F0E08081482F8A81282F6E
:101CE00030E081E090E0022E02C0880F991F0A9434
:101CF000E2F7842B8C9398C0ABE3B0E0EBE3F0E029
:101D00008081482F8A81282F30E081E090E0022EE8
:101D100002C0880F991F0A94E2F7809584238C9360
:101D200083C08B818130A1F4A8E3B0E0E8E3F0E068
:101D30008081482F8A81282F30E081E090E0022EB8
:101D400002C0880F991F0A94E2F7842B8C936CC011
:101D5000A8E3B0E0E8E3F0E08081482F8A81282FF3
:101D600030E081E090E0022E02C0880F991F0A94B3
:101D7000E2F7809584238C9357C08B818130A1F446
:101D8000A5E3B0E0E5E3F0E08081482F8A81282FC9
:101D900030E081E090E0022E02C0880F991F0A9483
:101DA000E2F7842B8C9340C0A5E3B0E0E5E3F0E0DC
:101DB0008081482F8A81282F30E081E090E0022E38
:101DC00002C0880F991F0A94E2F7809584238C93B0
:101DD0002BC08B818130A1F4A2E3B0E0E2E3F0E01C
:101DE0008081482F8A81282F30E081E090E0022E08
:101DF00002C0880F991F0A94E2F7842B8C9314C0B9
:101E0000A2E3B0E0E2E3F0E08081482F8A81282F4E
:101E100030E081E090E0022E02C0880F991F0A9402
:101E2000E2F7809584238C9327960FB6F894DEBF53
:101E30000FBECDBFCF91DF910895DF93CF93CDB784
:101E4000DEB727970FB6F894DEBF0FBECDBF8A83EB
:101E50006B8319821F828A81853010F021E02F83E5
:101E60001E828B81893010F031E03E838F814E815C
:101E7000842B91E08927882309F480C08A81282F48
:101E800030E03D832C834C815D814130510579F1F7
:101E90008C819D818230910534F42C813D81211506
:101EA000310569F06BC04C815D8142305105B9F15B
:101EB0008C819D818330910509F449C05FC0E9E3BD
:101EC000F0E08081282F30E08B81882F90E0A901FD
:101ED00002C0559547958A95E2F7CA0181709070C6
:101EE000882319F081E0898349C0198247C0E6E35D
:101EF000F0E08081282F30E08B81882F90E0A901CD
:101F000002C0559547958A95E2F7CA018170907095
:101F1000882319F081E0898331C019822FC0E3E35F
:101F2000F0E08081282F30E08B81882F90E0A9019C
:101F300002C0559547958A95E2F7CA018170907065
:101F4000882319F081E0898319C0198217C0E0E362
:101F5000F0E08081282F30E08B81882F90E0A9016C
:101F600002C0559547958A95E2F7CA018170907035
:101F7000882319F081E0898301C01982898127961D
:101F80000FB6F894DEBF0FBECDBFCF91DF9108959D
:101F9000DF93CF9300D000D0CDB7DEB789836A83BB
:101FA0008981853090F58981282F30E03C832B830F
:101FB0008B819C8181309105D1F02B813C81223035
:101FC00031052CF48B819C81009761F01EC02B8120
:101FD0003C812230310581F08B819C8183309105D9
:101FE00081F013C0EAE3F0E08A8180830EC0E7E36A
:101FF000F0E08A81808309C0E4E3F0E08A81808395
:1020000004C0E1E3F0E08A8180830F900F900F908D
:102010000F90CF91DF910895DF93CF9300D000D040
:10202000CDB7DEB789836A838981853090F5898150
:10203000282F30E03C832B838B819C81813091055C
:10204000D1F02B813C81223031052CF48B819C8195
:10205000009761F01EC02B813C812230310581F058
:102060008B819C818330910581F013C0EBE3F0E01C
:102070008A8180830EC0E8E3F0E08A81808309C012
:10208000E5E3F0E08A81808304C0E2E3F0E08A8146
:1020900080830F900F900F900F90CF91DF91089554
:1020A000DF93CF9300D000D0CDB7DEB78A831982FB
:1020B0008A81853090F58A81282F30E03C832B83FC
:1020C0008B819C8181309105D1F02B813C81223024
:1020D00031052CF48B819C81009761F01EC02B810F
:1020E0003C812230310581F08B819C8183309105C8
:1020F00081F013C0E9E3F0E0808189830EC0E6E35C
:10210000F0E08081898309C0E3E3F0E08081898386
:1021100004C0E0E3F0E08081898389810F900F9013
:102120000F900F90CF91DF9108950F931F93DF933E
:10213000CF930F92CDB7DEB78983A7E3B0E0E7E393
:10214000F0E0808188608C93E3E5F0E08AE68083AC
:10215000E2E5F0E010828981843651F50CE510E06B
:102160008981882F90E0A0E0B0E0BC01CD010E9401
:10217000A904DC01CB01BC01CD0120E030E048EC3A
:1021800052E40E941903DC01CB01BC01CD0120E027
:1021900030E04FE753E40E941F02DC01CB01BC0199
:1021A000CD010E944900DC01CB01F801808329C0E8
:1021B0000CE510E08981882F90E0A0E0B0E0BC0140
:1021C000CD010E94A904DC01CB01BC01CD0120E0BE
:1021D00030E048EC52E40E941903DC01CB01BC0161
:1021E000CD0120E030E040E853E40E941F02DC0112
:1021F000CB01BC01CD010E944900DC01CB01F801FB
:1022000080830F90CF91DF911F910F9108951F92BE
:102210000F920FB60F9211242F933F934F935F931A
:102220006F937F938F939F93AF93BF93EF93FF939E
:10223000DF93CF93CDB7DEB7809182019091830178
:10224000009729F0E0918201F09183010995CF91E7
:10225000DF91FF91EF91BF91AF919F918F917F910E
:102260006F915F914F913F912F910F900FBE0F9003
:102270001F9018951F920F920FB60F9211242F9353
:102280003F934F935F936F937F938F939F93AF93FE
:10229000BF93EF93FF93DF93CF93CDB7DEB78091DA
:1022A000820190918301009729F0E0918201F091E1
:1022B00083010995CF91DF91FF91EF91BF91AF918C
:1022C0009F918F917F916F915F914F913F912F914E
:1022D0000F900FBE0F901F901895DF93CF9300D0F3
:1022E000CDB7DEB79A838983EFE4F0E088E080839E
:1022F000AEE4B0E0EEE4F0E08081982F987FE981D1
:10230000FA818481892B8C93ACE4B0E0E981FA8175
:102310008081918111969C938E93E981FA818581C8
:10232000882341F4A9E5B0E0E9E5F0E0808184602C
:102330008C931CC0E981FA8185818130B9F4AEE4C7
:10234000B0E0EEE4F0E0808188608C93AAE4B0E035
:10235000E981FA818281938111969C938E93A9E5FC
:10236000B0E0E9E5F0E0808180618C930F900F9000
:10237000CF91DF910895DF93CF93CDB7DEB7AEE471
:10238000B0E0EEE4F0E08081887F8C93EAE4F0E056
:1023900011821082ECE4F0E011821082CF91DF9183
:1023A0000895DF93CF9300D0CDB7DEB79A838983AA
:1023B00089819A8190938301809382010F900F907D
:1023C000CF91DF9108950F931F93DF93CF9300D0A8
:1023D000CDB7DEB79A83898300E210E0E981FA8104
:1023E000248135814681578180E092E1AAE7B0E0FF
:1023F000BC01CD010E949C13DA01C9014097A109DB
:10240000B109B695A79597958795F8018083E1E284
:10241000F0E0108222E230E0E981FA81808191814E
:10242000A281B381F9018083E6E5F0E084E0808356
:102430000F900F90CF91DF911F910F910895DF932F
:10244000CF93CDB7DEB7E6E5F0E084EA8083E6E53A
:10245000F0E080818823DCF7CF91DF910895DF934E
:10246000CF93CDB7DEB7E6E5F0E084E98083CF9186
:10247000DF910895DF93CF930F92CDB7DEB78983B5
:10248000E3E2F0E089818083E6E5F0E084E88083A0
:10249000E6E5F0E080818823DCF70F90CF91DF91B3
:1024A0000895DF93CF93CDB7DEB7E6E5F0E084EC97
:1024B0008083E6E5F0E080818823DCF7E3E2F0E06A
:1024C0008081CF91DF910895DF93CF93CDB7DEB7B1
:1024D000E6E5F0E084E88083E6E5F0E080818823AB
:1024E000DCF7E3E2F0E08081CF91DF910895DF93A4
:1024F000CF930F92CDB7DEB7E1E2F0E08081887F25
:10250000898389810F90CF91DF910895DF93CF93D5
:1025100000D000D0CDB7DEB79C838B831A8219829E
:10252000EBE2F0E082E08083EAE2F0E088E18083A1
:10253000A0E4B0E0E0E4F0E0808180688C93A0E467
:10254000B0E0E0E4F0E08081282F2F7CEB81FC817B
:102550008181882F90E082959295907F9827807F47
:102560009827822B8C93A0E4B0E0E0E4F0E0808137
:10257000282F287FEB81FC818281882F90E0880FB3
:10258000991F880F991F880F991F822B8C93A0E4A5
:10259000B0E0E0E4F0E08081282F267FEB81FC8131
:1025A0008081882F90E0880F991F822B8C93EB817C
:1025B000FC8183819481A581B681880F991FAA1F10
:1025C000BB1F880F991FAA1FBB1F880F991FAA1F27
:1025D000BB1F9C01AD0180E092E1AAE7B0E0BC0125
:1025E000CD010E949C13DA01C90101979A83898366
:1025F000E9E2F0E089818083E0E4F0E089819A817A
:10260000892F992780830F900F900F900F90CF9173
:10261000DF910895DF93CF930F92CDB7DEB7898313
:10262000EBE2F0E08081882F90E08072907000975C
:10263000B9F3ECE2F0E0898180830F90CF91DF91D4
:102640000895DF93CF93CDB7DEB7EBE2F0E0808162
:102650008823DCF7ECE2F0E08081CF91DF910895F0
:10266000DF93CF9300D00F92CDB7DEB79B838A83E1
:1026700019820EC08981282F30E08A819B81FC015C
:10268000E20FF31F80810E940A1389818F5F898383
:102690008981282F30E08A819B81FC01E20FF31FA2
:1026A0008081882339F70F900F900F90CF91DF91A1
:1026B00008950F931F93DF93CF9300D00F92CDB760
:1026C000DEB79B838A8319828981282F30E08A8133
:1026D0009B818C01020F131F0E942113F80180833C
:1026E0000FC089818F5F89838981282F30E08A819B
:1026F0009B818C01020F131F0E942113F80180831C
:102700008981282F30E08A819B81FC01E20FF31F31
:102710008081833231F78981282F30E08A819B8143
:10272000FC01E20FF31F10820F900F900F90CF91DA
:10273000DF911F910F910895A1E21A2EAA1BBB1BD6
:10274000FD010DC0AA1FBB1FEE1FFF1FA217B3077D
:10275000E407F50720F0A21BB30BE40BF50B661F93
:10276000771F881F991F1A9469F760957095809557
:1027700090959B01AC01BD01CF0108952F923F922E
:102780004F925F926F927F928F929F92AF92BF9281
:10279000CF92DF92EF92FF920F931F93CF93DF932D
:1027A000CDB7DEB7CA1BDB0B0FB6F894DEBF0FBE8A
:1027B000CDBF09942A88398848885F846E847D84D7
:1027C0008C849B84AA84B984C884DF80EE80FD80D9
:1027D0000C811B81AA81B981CE0FD11D0FB6F8944F
:0E27E000DEBF0FBECDBFED010895F894FFCF10
:1027EE0000000000000000000001020203030303CA
:1027FE000404040404040404050505050505050583
:10280E000505050505050505060606060606060662
:10281E00060606060606060606060606060606064A
:10282E000606060606060606070707070707070732
:10283E00070707070707070707070707070707071A
:10284E00070707070707070707070707070707070A
:10285E0007070707070707070707070707070707FA
:10286E0007070707070707070808080808080808E2
:10287E0008080808080808080808080808080808CA
:10288E0008080808080808080808080808080808BA
:10289E0008080808080808080808080808080808AA
:1028AE00080808080808080808080808080808089A
:1028BE00080808080808080808080808080808088A
:1028CE00080808080808080808080808080808087A
:1028DE00080808080808080808080808080808086A
:1028EE0008080808080808080000841E05010100F1
:0E28FE000000801A0600030000802500000084
:00000001FF
