:100000000C942A000C9447000C9447000C94470071
:100010000C9447000C9447000C9447000C94F31A7E
:100020000C9447000C94C01A0C9447000C944700A1
:100030000C9447000C9447000C9447000C94470024
:100040000C9447000C9447000C9447000C94470014
:100050000C94470011241FBECFE5D8E0DEBFCDBF12
:1000600011E0A0E6B0E0E4EAFAE302C005900D92E8
:10007000A635B107D9F711E0A6E5B1E001C01D92A0
:10008000AB36B107E1F70E94A3050C94501D0C9408
:100090000000EF92FF920F931F937B018C0120E0F1
:1000A00030E040E05FE40E94490388238CF0C801FF
:1000B000B70120E030E040E05FE40E94C1010E940F
:1000C000A9039B01AC01205030404040504806C07D
:1000D000C801B7010E94A9039B01AC01B901CA0183
:1000E0001F910F91FF90EF900895A0E0B0E0EBE733
:1000F000F0E00C94D41CDC012B01FA019C919230AD
:1001000008F439C1EB018881823008F433C194309E
:1001100069F4843009F02FC111969C91119789815F
:10012000981709F428C1AAE3B1E025C1843009F485
:1001300021C18230A9F4923009F01DC19A01AD01AC
:1001400088E0EA010990AE01E90109929E0181501F
:10015000C1F7E201898111969C918923818308C1AD
:10016000923009F407C112962D903C901397EB0141
:100170008A819B811496AD90BD90CD90DC901797AD
:10018000EC80FD800E811F819101281B390BB90184
:1001900037FF04C066277727621B730B6032710537
:1001A0000CF061C0121613066CF537014801062EDB
:1001B00004C096948794779467940A94D2F721E0C8
:1001C00030E040E050E004C0220F331F441F551FB1
:1001D0006A95D2F721503040404050402E213F21B7
:1001E00040235123211531054105510521F021E01E
:1001F00030E040E050E079018A01E628F72808293C
:1002000019293CC0232BD1F1260E371E350146019A
:10021000062E04C096948794779467940A94D2F734
:1002200021E030E040E050E004C0220F331F441FC3
:10023000551F6A95D2F721503040404050402A2146
:100240003B214C215D21211531054105510521F04E
:1002500021E030E040E050E059016A01A628B728CB
:10026000C828D9280BC0821593052CF01C01AA249C
:10027000BB24650103C0EE24FF24870111969C91E5
:10028000D20111968C91981709F445C0992339F041
:10029000A80197012A193B094C095D0906C0A6016E
:1002A00095012E193F09400B510B57FD08C01182D3
:1002B0003382228224833583468357831DC081E0A5
:1002C00081833382228288279927DC01821B930B4A
:1002D000A40BB50B84839583A683B7830DC0220F2F
:1002E000331F441F551F24833583468357838281E0
:1002F000938101979383828324813581468157813D
:10030000DA01C9010197A109B1098F5F9F4FAF4F72
:10031000BF4328F30BC0918333822282EA0CFB1C7B
:100320000C1D1D1DE482F5820683178383E0808304
:10033000248135814681578157FF1AC0C901AA27F8
:1003400097FDA095BA2F81709070A070B0705695EF
:10035000479537952795822B932BA42BB52B848318
:100360009583A683B7838281938101969383828349
:10037000DF0101C0D201CD01CDB7DEB7E2E10C94BF
:10038000F01CA0E2B0E0E7ECF1E00C94E01C698323
:100390007A838B839C832D833E834F835887E9E048
:1003A000EE2EF12CEC0EFD1ECE010196B7010E943F
:1003B000D2048E010F5E1F4FCE010596B8010E9438
:1003C000D2048A8991E089278A8BC701B801AE01DE
:1003D000475E5F4F0E9475000E94FD03A096E6E015
:1003E0000C94FC1CA0E2B0E0E8EFF1E00C94E01CFF
:1003F00069837A838B839C832D833E834F835887C5
:10040000F9E0EF2EF12CEC0EFD1ECE010196B701A6
:100410000E94D2048E010F5E1F4FCE010596B801D7
:100420000E94D204C701B801AE01475E5F4F0E942F
:1004300075000E94FD03A096E6E00C94FC1CA0E26F
:10044000B0E0E5E2F2E00C94D41C69837A838B83FC
:100450009C832D833E834F835887CE010196BE0136
:10046000675F7F4F0E94D204CE010596BE016F5E8A
:100470007F4F0E94D2049985923088F0898982301A
:10048000C8F0943019F4823051F404C0843029F457
:10049000923081F48AE391E0C6C0923049F420E0C2
:1004A0009A858A89981321E02A87CE010996BBC0D4
:1004B000823049F420E09A858A89981321E02A8BBA
:1004C000CE014196B0C02D843E844F8458886D88FB
:1004D0007E888F88988CEE24FF248701AA24BB2471
:1004E000650140E050E060E070E0E0E0F0E0C10174
:1004F00081709070892BE9F0E60CF71C081D191D1E
:100500009A01AB012A0D3B1D4C1D5D1D80E090E062
:10051000A0E0B0E0E614F7040805190520F481E036
:1005200090E0A0E0B0E0BA01A901480F591F6A1F8E
:100530007B1FAA0CBB1CCC1CDD1C97FE08C081E0F5
:1005400090E0A0E0B0E0A82AB92ACA2ADB2A3196B6
:10055000E032F10549F0660C771C881C991C569412
:10056000479437942794C3CFFA85EA892B893C892D
:100570008B859C85280F391F2E5F3F4F17C0CA01FE
:1005800081709070892B61F016950795F794E79428
:1005900080E090E0A0E0B0E8E82AF92A0A2B1B2BC3
:1005A00076956795579547952F5F3F4F77FDE7CF36
:1005B0000CC0440F551F661F771F17FD4160EE0CDE
:1005C000FF1C001F111F21503040403090E05907A0
:1005D00090E0690790E4790760F32B8F3C8FDB0193
:1005E000CA018F779070A070B07080349105A1051A
:1005F000B10561F447FD0AC0E114F10401051105DC
:1006000029F0405C5F4F6F4F7F4F40781A8EFE1786
:1006100011F081E08A8F4D8F5E8F6F8F78A383E01A
:10062000898FCE0149960E94FD03A096E2E10C94C9
:10063000F01CA8E1B0E0EFE1F3E00C94E01C69836A
:100640007A838B839C832D833E834F83588789E0F5
:10065000E82EF12CEC0EFD1ECE010196B7010E9492
:10066000D2048E010F5E1F4FCE010596B8010E9485
:10067000D2048985823040F08989823028F0C70110
:10068000B8010E944A0501C08FEF6896E6E00C941D
:10069000FC1CA8E1B0E0EFE4F3E00C94E01C6983FB
:1006A0007A838B839C832D833E834F83588789E095
:1006B000E82EF12CEC0EFD1ECE010196B7010E9432
:1006C000D2048E010F5E1F4FCE010596B8010E9425
:1006D000D2048985823040F08989823028F0C701B0
:1006E000B8010E944A0501C08FEF6896E6E00C94BD
:1006F000FC1CA8E1B0E0EFE7F3E00C94E01C698398
:100700007A838B839C832D833E834F83588789E034
:10071000E82EF12CEC0EFD1ECE010196B7010E94D1
:10072000D2048E010F5E1F4FCE010596B8010E94C4
:10073000D2048985823040F08989823028F0C7014F
:10074000B8010E944A0501C081E06896E6E00C9479
:10075000FC1CACE0B0E0EFEAF3E00C94E41C69832D
:100760007A838B839C83CE010196BE016B5F7F4FA2
:100770000E94D2048D81823061F1823050F1843048
:1007800021F48E81882351F12EC02F81388537FDC9
:1007900020C06E812F3131051CF06623F9F023C093
:1007A0008EE190E0821B930B29853A854B855C8511
:1007B00004C056954795379527958A95D2F76623B5
:1007C000B1F050954095309521953F4F4F4F5F4F79
:1007D0000EC020E030E040E050E009C02FEF3FEFD6
:1007E0004FEF5FE704C020E030E040E050E8B9019F
:1007F000CA012C96E2E00C94001DDF92EF92FF926A
:100800000F931F93FC01E480F58006811781D1804E
:100810008081823048F480E090E0A0E1B0E0E82AF6
:10082000F92A0A2B1B2BA5C0843009F49FC0823003
:1008300021F4EE24FF24870105C0E114F104010531
:10084000110519F4E0E0F0E096C0628173819FEF3A
:10085000623879070CF05BC022E83FEF261B370BAC
:100860002A3131052CF020E030E040E050E02AC091
:10087000B801A701022E04C0769567955795479554
:100880000A94D2F781E090E0A0E0B0E004C0880FC5
:10089000991FAA1FBB1F2A95D2F70197A109B10979
:1008A0008E219F21A023B1230097A105B10521F03E
:1008B00081E090E0A0E0B0E09A01AB01282B392B59
:1008C0004A2B5B2BDA01C9018F779070A070B07052
:1008D00080349105A105B10539F427FF09C0205CDA
:1008E0003F4F4F4F5F4F04C0215C3F4F4F4F5F4F13
:1008F000E0E0F0E02030A0E03A07A0E04A07A0E402
:100900005A0710F0E1E0F0E079018A0127C0603871
:10091000710564F5FB01E158FF4FD801C7018F77DE
:100920009070A070B07080349105A105B10539F4C4
:10093000E7FE0DC080E490E0A0E0B0E004C08FE3EB
:1009400090E0A0E0B0E0E80EF91E0A1F1B1F17FFA1
:1009500005C016950795F794E794319687E01695AC
:100960000795F794E7948A95D1F705C0EE24FF2404
:100970008701EFEFF0E06E2F679566276795902F60
:100980009F77D794DD24D7948E2F8695492F462BB9
:10099000582F5D29B701CA011F910F91FF90EF9069
:1009A000DF900895FC01DB01408151812281622F9B
:1009B0006F7770E0221F2227221F9381892F880FD3
:1009C000822B282F30E0991F9927991F11969C930D
:1009D000119721153105A9F54115510561057105DD
:1009E00011F482E037C082E89FEF13969C938E93B8
:1009F00012979A01AB0167E0220F331F441F551F66
:100A00006A95D1F783E08C930DC0220F331F441FEA
:100A1000551F12968D919C911397019713969C9355
:100A20008E931297203080E0380780E0480780E4FA
:100A3000580758F314962D933D934D935C93179755
:100A400008952F3F310579F4411551056105710570
:100A500019F484E08C93089564FF03C081E08C93C3
:100A600012C01C9210C02F57304013963C932E9307
:100A7000129783E08C9387E0440F551F661F771F02
:100A80008A95D1F7706414964D935D936D937C9322
:100A9000179708951F93DC01FB019C91923008F495
:100AA00047C08081823008F443C0943051F41196DD
:100AB0001C91843099F58181682F70E0611B710968
:100AC0003FC0843021F0923031F48230B9F181811D
:100AD000882389F12DC011961C9111978230F1F075
:100AE00081811817D9F412962D913C911397828128
:100AF00093818217930794F028173907BCF0149656
:100B00008D919D910D90BC91A02D248135814681C0
:100B10005781281739074A075B0718F4112341F05A
:100B20000AC082179307A407B50740F4112319F0F0
:100B300061E070E005C06FEF7FEF02C060E070E041
:100B4000CB011F910895DF93CF93CDB7DEB7A89760
:100B50000FB6F894DEBF0FBECDBFAFE5B0E0EFE556
:100B6000F0E0808180688C930E947319CE014D96CD
:100B70009DA38CA3E2E4F1E0FFA3EEA3F7E0F8A7C6
:100B8000EEA1FFA100808EA19FA101969FA38EA33D
:100B9000ECA1FDA100828CA19DA101969DA38CA337
:100BA00098A5915098A7E8A5EE2351F7CE014D9650
:100BB0000E949C1B80E990E10E948A1B80E10E94B8
:100BC000201C0E94371C8093600180916001853950
:100BD00009F00BC10E9400070E94DD0A0E94371C29
:100BE0008093600180916001803409F079C081E0D8
:100BF0000E94951580E690E00E940F1A80E090E038
:100C0000AAE7B4E4898F9A8FAB8FBC8F698D7A8DF8
:100C10008B8D9C8D20E030E04AEF54E40E941F024F
:100C2000DC01CB018D8B9E8BAF8BB88F6D897E895C
:100C30008F89988D20E030E040E85FE30E947903DF
:100C400088232CF481E090E09C8B8B8B3FC06D89D6
:100C50007E898F89988D20E03FEF4FE757E40E940F
:100C6000190318164CF5698D7A8D8B8D9C8D20E0BB
:100C700030E040E251E40E941F02DC01CB01BC01E4
:100C8000CD010E944900DC01CB019C8B8B8B0FC0F6
:100C900088EC90E09A8B898B89899A890197F1F782
:100CA0009A8B898B8B899C8901979C8B8B8B8B89E9
:100CB0009C89009769F714C06D897E898F89988D0A
:100CC0000E944900DC01CB019C8B8B8B8B899C891A
:100CD000988B8F878F8598890197F1F7988B8F87ED
:100CE00080916001803409F475CF81E00E949515F0
:100CF00086E790E00E940F1A23E830E081E060E090
:100D0000A9010E947A1A80E090E0AAE7B4E48B87F8
:100D10009C87AD87BE876B857C858D859E8520E011
:100D200030E04AEF54E40E941F02DC01CB018F83C4
:100D30009887A987BA876F81788589859A8520E009
:100D400030E040E85FE30E94790388232CF481E0DF
:100D500090E09E838D833FC06F81788589859A85D9
:100D600020E03FEF4FE757E40E94190318164CF5B7
:100D70006B857C858D859E8520E030E040E251E4E6
:100D80000E941F02DC01CB01BC01CD010E94490081
:100D9000DC01CB019E838D830FC088EC90E09C83A7
:100DA0008B838B819C810197F1F79C838B838D8151
:100DB0009E8101979E838D838D819E81009769F727
:100DC00014C06F81788589859A850E944900DC016D
:100DD000CB019E838D838D819E819A8389838981B6
:100DE0009A810197F1F79A8389830E94371C809337
:100DF0006001809160018039E1F70E94080BF5CF16
:100E00000F931F93DF93CF93CDB7DEB7C655D04076
:100E10000FB6F894DEBF0FBECDBFFE01EB5AFF4FF9
:100E2000108281E00E94951589E890E00E940F1AD7
:100E300081E060E00E94381A60C10E940A14FE013D
:100E4000EA5AFF4F8083FE01EF5AFF4F80E090E0A7
:100E5000A8E4B2E480839183A283B3838E01035B11
:100E60001F4FFE01EF5AFF4F608171818281938194
:100E700020E030E04AEF54E40E941F02DC01CB0185
:100E8000F80180839183A283B383FE01E35BFF4F6C
:100E9000608171818281938120E030E040E85FE3EE
:100EA0000E947903882344F4FE01E55BFF4F81E053
:100EB00090E09183808364C0FE01E35BFF4F60811B
:100EC00071818281938120E03FEF4FE757E40E94D8
:100ED000190318160CF043C0FE01EF5AFF4F608152
:100EE00071818281938120E030E040E251E40E94F0
:100EF0001F02DC01CB018E01055B1F4FBC01CD0140
:100F00000E944900DC01CB01F801918380831FC05E
:100F1000FE01E75BFF4F88EC90E091838083FE0148
:100F2000E75BFF4F808191810197F1F7FE01E75B5D
:100F3000FF4F91838083DE01A55BBF4FFE01E55B20
:100F4000FF4F80819181019711969C938E93FE01B2
:100F5000E55BFF4F808191810097D1F628C08E011B
:100F6000055B1F4FFE01E35BFF4F60817181828152
:100F700093810E944900DC01CB01F80191838083B9
:100F8000DE01A95BBF4FFE01E55BFF4F80819181D0
:100F900011969C938E93FE01E95BFF4F80819181B6
:100FA0000197F1F7FE01E95BFF4F91838083FE011A
:100FB000EA5AFF4F80818A3008F09FC08AE20E947F
:100FC0008417FE01EB5AFF4F8081882F90E0DC01EF
:100FD000AA59BE4FFE01EA5AFF4F80818C93DE0171
:100FE000AB5ABF4FFE01EB5AFF4F80818F5F8C934E
:100FF000FE01ED5BFF4F80E090E0A8ECB3E480835E
:101000009183A283B3838E01015C1F4FFE01ED5BD0
:10101000FF4F608171818281938120E030E04AEF4F
:1010200054E40E941F02DC01CB01F801808391830C
:10103000A283B383FE01FF966081718182819381D7
:1010400020E030E040E85FE30E94790388232CF43D
:1010500081E090E09EAF8DAF46C0FE01FF966081BB
:1010600071818281938120E03FEF4FE757E40E9436
:101070001903181664F5FE01ED5BFF4F6081718165
:101080008281938120E030E040E251E40E941F021F
:10109000DC01CB01BC01CD010E944900DC01CB0188
:1010A0009EAF8DAF0FC088EC90E09CAF8BAF8BAD47
:1010B0009CAD0197F1F79CAF8BAF8DAD9EAD0197C5
:1010C0009EAF8DAF8DAD9EAD009769F716C0FE0146
:1010D000FF9660817181828193810E944900DC01C9
:1010E000CB019EAF8DAF8DAD9EAD9AAF89AF89AD6F
:1010F0009AAD0197F1F79AAF89AFFE01EB5AFF4F16
:101100008081853008F499CE81E00E94951589E9A7
:1011100090E00E940F1A28EA30E081E060E0A90127
:101120000E947A1A78C00E940A14FE01EA5AFF4F00
:10113000808380E090E0A8ECB3E48DAB9EABAFABD6
:10114000B8AF6DA97EA98FA998AD20E030E04AEF35
:1011500054E40E941F02DC01CB0189AB9AABABAB1C
:10116000BCAB69A97AA98BA99CA920E030E040E832
:101170005FE30E94790388232CF481E090E098AB30
:101180008FA73FC069A97AA98BA99CA920E03FEF4E
:101190004FE757E40E94190318164CF56DA97EA974
:1011A0008FA998AD20E030E040E251E40E941F0298
:1011B000DC01CB01BC01CD010E944900DC01CB0167
:1011C00098AB8FA70FC088EC90E09EA78DA78DA548
:1011D0009EA50197F1F79EA78DA78FA598A90197C6
:1011E00098AB8FA78FA598A9009769F714C069A934
:1011F0007AA98BA99CA90E944900DC01CB0198AB7C
:101200008FA78FA598A99CA78BA78BA59CA50197B5
:10121000F1F79CA78BA7FE01EA5AFF4F80818D331F
:1012200009F081CF81E00E94951581EB90E00E944A
:101230000F1A22EC30E081E060E0A9010E947A1AE6
:10124000FE01EB5AFF4F10820BC10E940A14FE01EF
:10125000EA5AFF4F808380E090E0A8E4B2E48FA3D5
:1012600098A7A9A7BAA76FA178A589A59AA520E0F4
:1012700030E04AEF54E40E941F02DC01CB018BA353
:101280009CA3ADA3BEA36BA17CA18DA19EA120E0D8
:1012900030E040E85FE30E94790388232CF481E08A
:1012A00090E09AA389A33FC06BA17CA18DA19EA1D0
:1012B00020E03FEF4FE757E40E94190318164CF562
:1012C0006FA178A589A59AA520E030E040E251E41D
:1012D0000E941F02DC01CB01BC01CD010E9449002C
:1012E000DC01CB019AA389A30FC088EC90E098A3FE
:1012F0008F8F8F8D98A10197F1F798A38F8F89A178
:101300009AA101979AA389A389A19AA1009769F745
:1013100014C06BA17CA18DA19EA10E944900DC019B
:10132000CB019AA389A389A19AA19E8F8D8F8D8DC0
:101330009E8D0197F1F79E8F8D8FFE01EA5AFF4F28
:1013400080818A3008F08CC08AE20E948417FE01F6
:10135000EB5AFF4F8081882F90E0DC01AF59BE4FE0
:10136000FE01EA5AFF4F80818C93DE01AB5ABF4FDA
:10137000FE01EB5AFF4F80818F5F8C9380E090E0FD
:10138000A8ECB3E4898F9A8FAB8FBC8F698D7A8D6F
:101390008B8D9C8D20E030E04AEF54E40E941F02C8
:1013A000DC01CB018D8B9E8BAF8BB88F6D897E89D5
:1013B0008F89988D20E030E040E85FE30E94790358
:1013C00088232CF481E090E09C8B8B8B3FC06D894F
:1013D0007E898F89988D20E03FEF4FE757E40E9488
:1013E000190318164CF5698D7A8D8B8D9C8D20E034
:1013F00030E040E251E40E941F02DC01CB01BC015D
:10140000CD010E944900DC01CB019C8B8B8B0FC06E
:1014100088EC90E09A8B898B89899A890197F1F7FA
:101420009A8B898B8B899C8901979C8B8B8B8B8961
:101430009C89009769F714C06D897E898F89988D82
:101440000E944900DC01CB019C8B8B8B8B899C8992
:10145000988B8F878F8598890197F1F7988B8F8765
:10146000FE01EB5AFF4F8081853008F4EECE78C044
:101470000E940A14FE01EA5AFF4F808380E090E048
:10148000A8ECB3E48B879C87AD87BE876B857C8592
:101490008D859E8520E030E04AEF54E40E941F02D3
:1014A000DC01CB018F839887A987BA876F81788504
:1014B00089859A8520E030E040E85FE30E94790367
:1014C00088232CF481E090E09E838D833FC06F8160
:1014D000788589859A8520E03FEF4FE757E40E94A1
:1014E000190318164CF56B857C858D859E8520E04B
:1014F00030E040E251E40E941F02DC01CB01BC015C
:10150000CD010E944900DC01CB019E838D830FC079
:1015100088EC90E09C838B838B819C810197F1F711
:101520009C838B838D819E8101979E838D838D818A
:101530009E81009769F714C06F81788589859A85A7
:101540000E944900DC01CB019E838D838D819E81A9
:101550009A83898389819A810197F1F79A83898394
:10156000FE01EA5AFF4F80818D3309F081CFCA5ABC
:10157000DF4F0FB6F894DEBF0FBECDBFCF91DF9126
:101580001F910F910895DF93CF930F92CDB7DEB7E0
:1015900019820CC08981882F90E0FC01EA59FE4F26
:1015A00080810E94201C89818F5F89838981853099
:1015B00088F30F90CF91DF910895DF93CF93CDB74C
:1015C000DEB780E10E94201C0E94C30A80E10E94D5
:1015D000201C0E94EE0ACF91DF910895DF93CF93F4
:1015E0000F92CDB7DEB719820CC08981882F90E0A9
:1015F000FC01EF59FE4F80810E94201C89818F5F82
:1016000089838981853088F30F90CF91DF91089588
:101610000F931F93DF93CF93CDB7DEB7CC55D04058
:101620000FB6F894DEBF0FBECDBF81E00E949515C6
:101630008DEC90E00E940F1A2BED30E081E060E02D
:10164000A9010E947A1A0E940A1480935A01FE018D
:10165000ED5BFF4F80E090E0A8E4B2E480839183EB
:10166000A283B3838E01015C1F4FFE01ED5BFF4F30
:10167000608171818281938120E030E04AEF54E4FF
:101680000E941F02DC01CB01F80180839183A283B9
:10169000B383FE01FF96608171818281938120E096
:1016A00030E040E85FE30E94790388232CF481E076
:1016B00090E09EAF8DAF46C0FE01FF9660817181C4
:1016C0008281938120E03FEF4FE757E40E941903A6
:1016D000181664F5FE01ED5BFF4F60817181828118
:1016E000938120E030E040E251E40E941F02DC01DF
:1016F000CB01BC01CD010E944900DC01CB019EAFB2
:101700008DAF0FC088EC90E09CAF8BAF8BAD9CADE4
:101710000197F1F79CAF8BAF8DAD9EAD01979EAF5A
:101720008DAF8DAD9EAD009769F716C0FE01FF9697
:1017300060817181828193810E944900DC01CB012B
:101740009EAF8DAF8DAD9EAD9AAF89AF89AD9AAD8D
:101750000197F1F79AAF89AF80915A018B3209F066
:1017600020C180E80E94201C0E94CE0E80E090E004
:10177000A0EAB0E48DAB9EABAFABB8AF6DA97EA9CC
:101780008FA998AD20E030E04AEF54E40E941F0298
:10179000DC01CB0189AB9AABABABBCAB69A97AA935
:1017A0008BA99CA920E030E040E85FE30E94790328
:1017B00088232CF481E090E098AB8FA73FC069A903
:1017C0007AA98BA99CA920E03FEF4FE757E40E943C
:1017D000190318164CF56DA97EA98FA998AD20E0C4
:1017E00030E040E251E40E941F02DC01CB01BC0169
:1017F000CD010E944900DC01CB0198AB8FA70FC03F
:1018000088EC90E09EA78DA78DA59EA50197F1F786
:101810009EA78DA78FA598A9019798AB8FA78FA595
:1018200098A9009769F714C069A97AA98BA99CA9FE
:101830000E944900DC01CB0198AB8FA78FA598A926
:101840009CA78BA78BA59CA50197F1F79CA78BA7BD
:101850000E9473100E94371C809360018091600188
:10186000803609F481CF80916001803509F03FC056
:101870000E94371C8093600180916001833989F454
:1018800081E00E9495152BEE30E080E065E0A90133
:101890000E947A1A23EF30E081E064E0A9010E94FF
:1018A0007A1A0E94371C809360018091600182390E
:1018B00051F481E00E9495152DEF30E080E060E06A
:1018C000A9010E947A1A0E94371C809360018091BE
:1018D0006001813909F056C281E00E9495152CE023
:1018E00031E080E060E0A9010E947A1A4BC2809149
:1018F0006001863909F046C281E00E9495158CE1AD
:1019000091E00E940F1A2DE231E081E060E0A90130
:101910000E947A1ACE01895B9F4F65969FAF8EAF6A
:1019200065978FE491E067969FAF8EAF679796E0DB
:1019300068969FAF68976796EEADFFAD679700809A
:1019400067968EAD9FAD6797019667969FAF8EAFF6
:1019500067976596EEADFFAD6597008265968EAD93
:101960009FAD6597019665969FAF8EAF6597689618
:101970009FAD6897915068969FAF68976896EFAD56
:101980006897EE23C1F6CE01895B9F4F0E94261B0C
:1019900010925701809157018C33E1F70E94741B1C
:1019A000F1C180915A018D3209F0ECC181E80E94A9
:1019B000201C0E94CE0E80E090E0A0EAB0E48FA34D
:1019C00098A7A9A7BAA76FA178A589A59AA520E08D
:1019D00030E04AEF54E40E941F02DC01CB018BA3EC
:1019E0009CA3ADA3BEA36BA17CA18DA19EA120E071
:1019F00030E040E85FE30E94790388232CF481E023
:101A000090E09AA389A33FC06BA17CA18DA19EA168
:101A100020E03FEF4FE757E40E94190318164CF5FA
:101A20006FA178A589A59AA520E030E040E251E4B5
:101A30000E941F02DC01CB01BC01CD010E944900C4
:101A4000DC01CB019AA389A30FC088EC90E098A396
:101A50008F8F8F8D98A10197F1F798A38F8F89A110
:101A60009AA101979AA389A389A19AA1009769F7DE
:101A700014C06BA17CA18DA19EA10E944900DC0134
:101A8000CB019AA389A389A19AA19E8F8D8F8D8D59
:101A90009E8D0197F1F79E8F8D8F0E9473100E948B
:101AA000371C8093600180916001803609F481CFFA
:101AB00080916001803509F00CC10E9400070E94EE
:101AC000DD0A0E94371C80936001809160018034A0
:101AD00009F079C081E00E94951580E690E00E94AF
:101AE0000F1A80E090E0AAE7B4E4898F9A8FAB8F59
:101AF000BC8F698D7A8D8B8D9C8D20E030E04AEF14
:101B000054E40E941F02DC01CB018D8B9E8BAF8BB6
:101B1000B88F6D897E898F89988D20E030E040E80C
:101B20005FE30E94790388232CF481E090E09C8B92
:101B30008B8B3FC06D897E898F89988D20E03FEF28
:101B40004FE757E40E94190318164CF5698D7A8DFA
:101B50008B8D9C8D20E030E040E251E40E941F021A
:101B6000DC01CB01BC01CD010E944900DC01CB01AD
:101B70009C8B8B8B0FC088EC90E09A8B898B89892A
:101B80009A890197F1F79A8B898B8B899C890197A8
:101B90009C8B8B8B8B899C89009769F714C06D890E
:101BA0007E898F89988D0E944900DC01CB019C8B36
:101BB0008B8B8B899C89988B8F878F8598890197D0
:101BC000F1F7988B8F8780916001803409F475CF8D
:101BD00081E00E94951586E790E00E940F1A23E8A5
:101BE00030E081E060E0A9010E947A1A80E090E094
:101BF000AAE7B4E48B879C87AD87BE876B857C851D
:101C00008D859E8520E030E04AEF54E40E941F025B
:101C1000DC01CB018F839887A987BA876F8178858C
:101C200089859A8520E030E040E85FE30E947903EF
:101C300088232CF481E090E09E838D833FC06F81E8
:101C4000788589859A8520E03FEF4FE757E40E9429
:101C5000190318164CF56B857C858D859E8520E0D3
:101C600030E040E251E40E941F02DC01CB01BC01E4
:101C7000CD010E944900DC01CB019E838D830FC002
:101C800088EC90E09C838B838B819C810197F1F79A
:101C90009C838B838D819E8101979E838D838D8113
:101CA0009E81009769F76EC06F81788589859A85D6
:101CB0000E944900DC01CB019E838D838D819E8132
:101CC0009A83898389819A810197F1F79A8389831D
:101CD00059C080916001863909F054C081E00E94AA
:101CE00095158CE191E00E940F1A2DE231E081E020
:101CF00060E0A9010E947A1ACE01835B9F4F6A9629
:101D00009FAF8EAF6A9789E491E06C969FAF8EAFDC
:101D10006C9796E06D969FAF6D976C96EEADFFADAC
:101D20006C9700806C968EAD9FAD6C9701966C960B
:101D30009FAF8EAF6C976A96EEADFFAD6A9700824B
:101D40006A968EAD9FAD6A9701966A969FAF8EAFE9
:101D50006A976D969FAD6D9791506D969FAF6D97F9
:101D60006D96EFAD6D97EE23C1F6CE01835B9F4F6D
:101D70000E94261B10925701809157018C33E1F786
:101D80000E94741BC45ADF4F0FB6F894DEBF0FBE1B
:101D9000CDBFCF91DF911F910F910895DF93CF9326
:101DA000CDB7DEB7AC970FB6F894DEBF0FBECDBF90
:101DB0001BA681E00E94951589E890E00E940F1A09
:101DC00081E060E00E94381AF9C00E940A148CA7D2
:101DD00080E090E0A8E4B2E48FA398A7A9A7BAA7EF
:101DE0006FA178A589A59AA520E030E04AEF54E4D8
:101DF0000E941F02DC01CB018BA39CA3ADA3BEA359
:101E00006BA17CA18DA19EA120E030E040E85FE3C2
:101E10000E94790388232CF481E090E09AA389A39F
:101E20003FC06BA17CA18DA19EA120E03FEF4FE7B9
:101E300057E40E94190318164CF56FA178A589A5DF
:101E40009AA520E030E040E251E40E941F02DC014C
:101E5000CB01BC01CD010E944900DC01CB019AA35A
:101E600089A30FC088EC90E098A38F8F8F8D98A1E5
:101E70000197F1F798A38F8F89A19AA101979AA34F
:101E800089A389A19AA1009769F714C06BA17CA1CD
:101E90008DA19EA10E944900DC01CB019AA389A3D8
:101EA00089A19AA19E8F8D8F8D8D9E8D0197F1F7BF
:101EB0009E8F8D8F8CA58A3008F080C08AE20E94A8
:101EC00084178BA5882F90E0FC01E55AFE4F8CA566
:101ED00080838BA58F5F8BA780E090E0AFEAB3E4AF
:101EE000898F9A8FAB8FBC8F698D7A8D8B8D9C8DEE
:101EF00020E030E04AEF54E40E941F02DC01CB01F5
:101F00008D8B9E8BAF8BB88F6D897E898F89988DD5
:101F100020E030E040E85FE30E94790388232CF45E
:101F200081E090E09C8B8B8B3FC06D897E898F898F
:101F3000988D20E03FEF4FE757E40E9419031816F1
:101F40004CF5698D7A8D8B8D9C8D20E030E040E2E0
:101F500051E40E941F02DC01CB01BC01CD010E94B3
:101F60004900DC01CB019C8B8B8B0FC088EC90E08F
:101F70009A8B898B89899A890197F1F79A8B898B3A
:101F80008B899C8901979C8B8B8B8B899C89009773
:101F900069F714C06D897E898F89988D0E944900E8
:101FA000DC01CB019C8B8B8B8B899C89988B8F87D9
:101FB0008F8598890197F1F7988B8F878BA585304E
:101FC00008F403CF81E00E94951589E990E00E9412
:101FD0000F1A28EA30E081E060E0A9010E947A1A35
:101FE00075C00E940A148CA780E090E0A6E9B3E4D3
:101FF0008B879C87AD87BE876B857C858D859E850D
:1020000020E030E04AEF54E40E941F02DC01CB01E3
:102010008F839887A987BA876F81788589859A8504
:1020200020E030E040E85FE30E94790388232CF44D
:1020300081E090E09E838D833FC06F8178858985A4
:102040009A8520E03FEF4FE757E40E9419031816E6
:102050004CF56B857C858D859E8520E030E040E2E7
:1020600051E40E941F02DC01CB01BC01CD010E94A2
:102070004900DC01CB019E838D830FC088EC90E08A
:102080009C838B838B819C810197F1F79C838B834D
:102090008D819E8101979E838D838D819E81009786
:1020A00069F714C06F81788589859A850E944900F7
:1020B000DC01CB019E838D838D819E819A838983F0
:1020C00089819A810197F1F79A8389838CA58D3351
:1020D00009F087CFAC960FB6F894DEBF0FBECDBF28
:1020E000CF91DF910895DF93CF930F92CDB7DEB7F5
:1020F00080E10E94201C19820CC08981882F90E009
:10210000FC01E55AFE4F80810E94201C89818F5F6F
:1021100089838981853088F30F90CF91DF9108956D
:10212000DF93CF93CDB7DEB7809157018F5F809358
:102130005701CF91DF910895DF93CF93CDB7DEB7ED
:1021400027970FB6F894DEBF0FBECDBF89836A8391
:102150004B831F828A81893010F021E02F831E82F9
:102160008981853010F031E03E838F819E81892BFB
:1021700091E08927882309F4D1C08981282F30E094
:102180003D832C838C819D818130910509F443C06E
:102190002C813D81223031052CF48C819D8100976A
:1021A00071F0BCC02C813D812230310509F45FC043
:1021B0008C819D818330910509F485C0AFC08B81EE
:1021C0008823A9F4AAE3B0E0EAE3F0E08081482F95
:1021D0008A81282F30E081E090E0022E02C0880F33
:1021E000991F0A94E2F7809584238C9397C0AAE301
:1021F000B0E0EAE3F0E08081482F8A81282F30E0C8
:1022000081E090E0022E02C0880F991F0A94E2F745
:10221000842B8C9383C08B818823A9F4A7E3B0E03F
:10222000E7E3F0E08081482F8A81282F30E081E0C9
:1022300090E0022E02C0880F991F0A94E2F7809561
:1022400084238C936BC0A7E3B0E0E7E3F0E08081E8
:10225000482F8A81282F30E081E090E0022E02C0D2
:10226000880F991F0A94E2F7842B8C9357C08B81B7
:102270008823A9F4A4E3B0E0E4E3F0E08081482FF0
:102280008A81282F30E081E090E0022E02C0880F82
:10229000991F0A94E2F7809584238C933FC0A4E3AE
:1022A000B0E0E4E3F0E08081482F8A81282F30E01D
:1022B00081E090E0022E02C0880F991F0A94E2F795
:1022C000842B8C932BC08B818823A9F4A1E3B0E0ED
:1022D000E1E3F0E08081482F8A81282F30E081E01F
:1022E00090E0022E02C0880F991F0A94E2F78095B1
:1022F00084238C9313C0A1E3B0E0E1E3F0E080819C
:10230000482F8A81282F30E081E090E0022E02C021
:10231000880F991F0A94E2F7842B8C9327960FB6A7
:10232000F894DEBF0FBECDBFCF91DF910895DF934C
:10233000CF93CDB7DEB727970FB6F894DEBF0FBEA9
:10234000CDBF89836A834B831F828981853010F0DA
:1023500021E02F831E828A81893010F031E03E8394
:102360008F819E81892B91E08927882309F4D1C030
:102370008981282F30E03D832C838C819D818130A1
:10238000910509F443C02C813D81223031052CF4A4
:102390008C819D81009771F0BCC02C813D812230E1
:1023A000310509F45FC08C819D818330910509F46A
:1023B00085C0AFC08B818130A1F4ABE3B0E0EBE32B
:1023C000F0E08081482F8A81282F30E081E090E082
:1023D000022E02C0880F991F0A94E2F7842B8C9377
:1023E00098C0ABE3B0E0EBE3F0E08081482F8A8156
:1023F000282F30E081E090E0022E02C0880F991F64
:102400000A94E2F7809584238C9383C08B8181307A
:10241000A1F4A8E3B0E0E8E3F0E08081482F8A81EE
:10242000282F30E081E090E0022E02C0880F991F33
:102430000A94E2F7842B8C936CC0A8E3B0E0E8E345
:10244000F0E08081482F8A81282F30E081E090E001
:10245000022E02C0880F991F0A94E2F78095842308
:102460008C9357C08B818130A1F4A5E3B0E0E5E304
:10247000F0E08081482F8A81282F30E081E090E0D1
:10248000022E02C0880F991F0A94E2F7842B8C93C6
:1024900040C0A5E3B0E0E5E3F0E08081482F8A8109
:1024A000282F30E081E090E0022E02C0880F991FB3
:1024B0000A94E2F7809584238C932BC08B81813022
:1024C000A1F4A2E3B0E0E2E3F0E08081482F8A814A
:1024D000282F30E081E090E0022E02C0880F991F83
:1024E0000A94E2F7842B8C9314C0A2E3B0E0E2E3F9
:1024F000F0E08081482F8A81282F30E081E090E051
:10250000022E02C0880F991F0A94E2F78095842357
:102510008C9327960FB6F894DEBF0FBECDBFCF9138
:10252000DF910895DF93CF93CDB7DEB727970FB62E
:10253000F894DEBF0FBECDBF8A836B8319821F82E2
:102540008A81853010F021E02F831E828B818930B3
:1025500010F031E03E838F814E81842B91E08927FA
:10256000882309F480C08A81282F30E03D832C83A2
:102570004C815D814130510579F18C819D818230A2
:10258000910534F42C813D812115310569F06BC032
:102590004C815D8142305105B9F18C819D81833040
:1025A000910509F449C05FC0E9E3F0E08081282F7C
:1025B00030E08B81882F90E0A90102C055954795A6
:1025C0008A95E2F7CA0181709070882319F081E042
:1025D000898349C0198247C0E6E3F0E08081282F53
:1025E00030E08B81882F90E0A90102C05595479576
:1025F0008A95E2F7CA0181709070882319F081E012
:10260000898331C019822FC0E3E3F0E08081282F55
:1026100030E08B81882F90E0A90102C05595479545
:102620008A95E2F7CA0181709070882319F081E0E1
:10263000898319C0198217C0E0E3F0E08081282F58
:1026400030E08B81882F90E0A90102C05595479515
:102650008A95E2F7CA0181709070882319F081E0B1
:10266000898301C01982898127960FB6F894DEBF4D
:102670000FBECDBFCF91DF910895DF93CF9300D0F0
:1026800000D0CDB7DEB789836A838981853090F524
:102690008981282F30E03C832B838B819C81813082
:1026A0009105D1F02B813C81223031052CF48B81B6
:1026B0009C81009761F01EC02B813C812230310546
:1026C00081F08B819C818330910581F013C0EAE316
:1026D000F0E08A8180830EC0E7E3F0E08A818083A6
:1026E00009C0E4E3F0E08A81808304C0E1E3F0E024
:1026F0008A8180830F900F900F900F90CF91DF9180
:102700000895DF93CF9300D000D0CDB7DEB7898393
:102710006A838981853090F58981282F30E03C8358
:102720002B838B819C8181309105D1F02B813C8161
:10273000223031052CF48B819C81009761F01EC002
:102740002B813C812230310581F08B819C8183304B
:10275000910581F013C0EBE3F0E08A8180830EC025
:10276000E8E3F0E08A81808309C0E5E3F0E08A8154
:10277000808304C0E2E3F0E08A8180830F900F90B1
:102780000F900F90CF91DF910895DF93CF9300D0FA
:1027900000D0CDB7DEB78A8319828A81853090F563
:1027A0008A81282F30E03C832B838B819C81813070
:1027B0009105D1F02B813C81223031052CF48B81A5
:1027C0009C81009761F01EC02B813C812230310535
:1027D00081F08B819C818330910581F013C0E9E306
:1027E000F0E0808189830EC0E6E3F0E08081898398
:1027F00009C0E3E3F0E08081898304C0E0E3F0E016
:102800008081898389810F900F900F900F90CF91D5
:10281000DF910895DF93CF93CDB7DEB760970FB602
:10282000F894DEBF0FBECDBF80E060E040E00E94C4
:102830009C1080E061E040E00E949C1080E062E03B
:1028400040E00E949C1080E063E040E00E949C1009
:1028500080E064E040E00E949C1080E065E040E0A1
:102860000E949C1080E066E040E00E949C1080E0A6
:1028700067E040E00E949C10188AABC080E0688945
:1028800041E00E949C1080E060E040E00E949711CF
:102890001F8622C08F85982F9C5F80E0692F0E9441
:1028A00092128823B1F48889882F90E0880F991FAD
:1028B000880F991F982F8F85890F8F5F0E94EE14C4
:1028C00060960FB6F894DEBF0FBECDBFCF91DF91FB
:1028D00008958F858F5F8F878F858430D8F280E051
:1028E000688940E00E949C1080E090E0A0EAB0E49B
:1028F0008B879C87AD87BE876B857C858D859E8504
:1029000020E030E04AEF54E40E941F02DC01CB01DA
:102910008F839887A987BA876F81788589859A85FB
:1029200020E030E040E85FE30E94790388232CF444
:1029300081E090E09E838D833FC06F81788589859B
:102940009A8520E03FEF4FE757E40E9419031816DD
:102950004CF56B857C858D859E8520E030E040E2DE
:1029600051E40E941F02DC01CB01BC01CD010E9499
:102970004900DC01CB019E838D830FC088EC90E081
:102980009C838B838B819C810197F1F79C838B8344
:102990008D819E8101979E838D838D819E8100977D
:1029A00069F714C06F81788589859A850E944900EE
:1029B000DC01CB019E838D838D819E819A838983E7
:1029C00089819A810197F1F79A83898388898F5F3A
:1029D000888B8889843008F451CF4ECFDF93CF9312
:1029E00000D000D0CDB7DEB78A8319828A81282F24
:1029F00030E03C832B838B819C818830910509F4E6
:102A000070C02B813C81293031055CF58B819C8124
:102A10008430910509F459C02B813C812530310562
:102A20009CF48B819C818230910509F448C02B81F4
:102A30003C81233031050CF045C08B819C81813075
:102A4000910509F439C067C02B813C8126303105DE
:102A500009F441C08B819C81873091050CF03EC008
:102A600037C02B813C812C30310509F446C08B8165
:102A70009C818D3091055CF42B813C812A3031059D
:102A8000B1F18B819C818B309105A4F52DC02B81F8
:102A90003C812E303105B9F18B819C818E309105BE
:102AA0007CF12B813C812F30310579F18B819C8128
:102AB0008031910569F12FC087E089832EC088E0BD
:102AC00089832BC089E0898328C08FE2898325C050
:102AD00084E0898322C085E089831FC086E08983E2
:102AE0001CC08AE2898319C081E0898316C082E014
:102AF000898313C083E0898310C08DE289830DC070
:102B00008DE089830AC0198208C08DE3898305C0DE
:102B10008BE2898302C08A81898389810F900F901B
:102B20000F900F90CF91DF910895DF93CF93CDB7A2
:102B3000DEB7E9970FB6F894DEBF0FBECDBF89AF01
:102B400081E060E040E00E94971180E090E0A0E822
:102B5000BFE38DAB9EABAFABB8AF6DA97EA98FA91C
:102B600098AD20E030E04AEF54E40E941F02DC01FF
:102B7000CB0189AB9AABABABBCAB69A97AA98BA9EA
:102B80009CA920E030E040E85FE30E9479038823BD
:102B90002CF481E090E098AB8FA73FC069A97AA997
:102BA0008BA99CA920E03FEF4FE757E40E9419034F
:102BB00018164CF56DA97EA98FA998AD20E030E0DC
:102BC00040E251E40E941F02DC01CB01BC01CD01B7
:102BD0000E944900DC01CB0198AB8FA70FC088ECA5
:102BE00090E09EA78DA78DA59EA50197F1F79EA7C2
:102BF0008DA78FA598A9019798AB8FA78FA598A9A6
:102C0000009769F714C069A97AA98BA99CA90E94A9
:102C10004900DC01CB0198AB8FA78FA598A99CA791
:102C20008BA78BA59CA50197F1F79CA78BA781E0AB
:102C300061E041E00E94971180E090E0A0E8BFE3EE
:102C40008FA398A7A9A7BAA76FA178A589A59AA5C8
:102C500020E030E04AEF54E40E941F02DC01CB0187
:102C60008BA39CA3ADA3BEA36BA17CA18DA19EA1B0
:102C700020E030E040E85FE30E94790388232CF4F1
:102C800081E090E09AA389A33FC06BA17CA18DA1B4
:102C90009EA120E03FEF4FE757E40E94190318166A
:102CA0004CF56FA178A589A59AA520E030E040E217
:102CB00051E40E941F02DC01CB01BC01CD010E9446
:102CC0004900DC01CB019AA389A30FC088EC90E0F6
:102CD00098A38F8F8F8D98A10197F1F798A38F8F6D
:102CE00089A19AA101979AA389A389A19AA1009782
:102CF00069F714C06BA17CA18DA19EA10E9449001F
:102D0000DC01CB019AA389A389A19AA19E8F8D8F03
:102D10008D8D9E8D0197F1F79E8F8D8F82E069AD2D
:102D20000E94811380E090E0A0E8BFE3898F9A8F32
:102D3000AB8FBC8F698D7A8D8B8D9C8D20E030E0C0
:102D40004AEF54E40E941F02DC01CB018D8B9E8B65
:102D5000AF8BB88F6D897E898F89988D20E030E0A8
:102D600040E85FE30E94790388232CF481E090E03F
:102D70009C8B8B8B3FC06D897E898F89988D20E0DD
:102D80003FEF4FE757E40E94190318164CF5698D81
:102D90007A8D8B8D9C8D20E030E040E251E40E94E2
:102DA0001F02DC01CB01BC01CD010E944900DC0106
:102DB000CB019C8B8B8B0FC088EC90E09A8B898B1E
:102DC00089899A890197F1F79A8B898B8B899C89DC
:102DD00001979C8B8B8B8B899C89009769F714C01A
:102DE0006D897E898F89988D0E944900DC01CB0115
:102DF0009C8B8B8B8B899C89988B8F878F859889EF
:102E00000197F1F7988B8F8781E061E040E00E94A5
:102E1000971180E090E0A0E8BFE38B879C87AD87A7
:102E2000BE876B857C858D859E8520E030E04AEFEE
:102E300054E40E941F02DC01CB018F839887A9878D
:102E4000BA876F81788589859A8520E030E040E8EF
:102E50005FE30E94790388232CF481E090E09E8355
:102E60008D833FC06F81788589859A8520E03FEF0B
:102E70004FE757E40E94190318164CF56B857C85C3
:102E80008D859E8520E030E040E251E40E941F02E3
:102E9000DC01CB01BC01CD010E944900DC01CB016A
:102EA0009E838D830FC088EC90E09C838B838B8105
:102EB0009C810197F1F79C838B838D819E81019783
:102EC0009E838D838D819E81009769F714C06F81E9
:102ED000788589859A850E944900DC01CB019E8313
:102EE0008D838D819E819A83898389819A810197BF
:102EF000F1F79A838983E9960FB6F894DEBF0FBE87
:102F0000CDBFCF91DF910895DF93CF93CDB7DEB7DB
:102F1000E9970FB6F894DEBF0FBECDBF89AF81E051
:102F200060E041E00E94971180E090E0A0E8BFE3FC
:102F30008DAB9EABAFABB8AF6DA97EA98FA998AD95
:102F400020E030E04AEF54E40E941F02DC01CB0194
:102F500089AB9AABABABBCAB69A97AA98BA99CA98D
:102F600020E030E040E85FE30E94790388232CF4FE
:102F700081E090E098AB8FA73FC069A97AA98BA99F
:102F80009CA920E03FEF4FE757E40E941903181671
:102F90004CF56DA97EA98FA998AD20E030E040E204
:102FA00051E40E941F02DC01CB01BC01CD010E9453
:102FB0004900DC01CB0198AB8FA70FC088EC90E0F3
:102FC0009EA78DA78DA59EA50197F1F79EA78DA71A
:102FD0008FA598A9019798AB8FA78FA598A900975F
:102FE00069F714C069A97AA98BA99CA90E94490014
:102FF000DC01CB0198AB8FA78FA598A99CA78BA7C5
:103000008BA59CA50197F1F79CA78BA781E061E0B8
:1030100041E00E94971180E090E0A0E8BFE38FA319
:1030200098A7A9A7BAA76FA178A589A59AA520E016
:1030300030E04AEF54E40E941F02DC01CB018BA375
:103040009CA3ADA3BEA36BA17CA18DA19EA120E0FA
:1030500030E040E85FE30E94790388232CF481E0AC
:1030600090E09AA389A33FC06BA17CA18DA19EA1F2
:1030700020E03FEF4FE757E40E94190318164CF584
:103080006FA178A589A59AA520E030E040E251E43F
:103090000E941F02DC01CB01BC01CD010E9449004E
:1030A000DC01CB019AA389A30FC088EC90E098A320
:1030B0008F8F8F8D98A10197F1F798A38F8F89A19A
:1030C0009AA101979AA389A389A19AA1009769F768
:1030D00014C06BA17CA18DA19EA10E944900DC01BE
:1030E000CB019AA389A389A19AA19E8F8D8F8D8DE3
:1030F0009E8D0197F1F79E8F8D8F82E069AD0E94C2
:10310000811380E090E0A0E8BFE3898F9A8FAB8FB6
:10311000BC8F698D7A8D8B8D9C8D20E030E04AEFDD
:1031200054E40E941F02DC01CB018D8B9E8BAF8B80
:10313000B88F6D897E898F89988D20E030E040E8D6
:103140005FE30E94790388232CF481E090E09C8B5C
:103150008B8B3FC06D897E898F89988D20E03FEFF2
:103160004FE757E40E94190318164CF5698D7A8DC4
:103170008B8D9C8D20E030E040E251E40E941F02E4
:10318000DC01CB01BC01CD010E944900DC01CB0177
:103190009C8B8B8B0FC088EC90E09A8B898B8989F4
:1031A0009A890197F1F79A8B898B8B899C89019772
:1031B0009C8B8B8B8B899C89009769F714C06D89D8
:1031C0007E898F89988D0E944900DC01CB019C8B00
:1031D0008B8B8B899C89988B8F878F85988901979A
:1031E000F1F7988B8F8781E061E040E00E949711B2
:1031F00080E090E0A0E8BFE38B879C87AD87BE8727
:103200006B857C858D859E8520E030E04AEF54E417
:103210000E941F02DC01CB018F839887A987BA87A0
:103220006F81788589859A8520E030E040E85FE30A
:103230000E94790388232CF481E090E09E838D83A3
:103240003FC06F81788589859A8520E03FEF4FE701
:1032500057E40E94190318164CF56B857C858D8503
:103260009E8520E030E040E251E40E941F02DC0134
:10327000CB01BC01CD010E944900DC01CB019E8342
:103280008D830FC088EC90E09C838B838B819C8125
:103290000197F1F79C838B838D819E8101979E839B
:1032A0008D838D819E81009769F714C06F81788529
:1032B00089859A850E944900DC01CB019E838D831C
:1032C0008D819E819A83898389819A810197F1F703
:1032D0009A838983E9960FB6F894DEBF0FBECDBFFF
:1032E000CF91DF910895DF93CF93CDB7DEB72E97BF
:1032F0000FB6F894DEBF0FBECDBF81E060E041E0C5
:103300000E949C1081E061E041E00E949C1080E0FE
:1033100090E0A0EAB1E48B879C87AD87BE876B8580
:103320007C858D859E8520E030E04AEF54E40E9444
:103330001F02DC01CB018F839887A987BA876F8131
:10334000788589859A8520E030E040E85FE30E9437
:10335000790388232CF481E090E09E838D833FC025
:103360006F81788589859A8520E03FEF4FE757E4A4
:103370000E94190318164CF56B857C858D859E85FA
:1033800020E030E040E251E40E941F02DC01CB016A
:10339000BC01CD010E944900DC01CB019E838D83DD
:1033A0000FC088EC90E09C838B838B819C8101977C
:1033B000F1F79C838B838D819E8101979E838D8302
:1033C0008D819E81009769F714C06F81788589850A
:1033D0009A850E944900DC01CB019E838D838D81FB
:1033E0009E819A83898389819A810197F1F79A83D3
:1033F000898382E06FEF0E943D1388E30E94951558
:103400008CE00E94951581E00E9495152E960FB6CE
:10341000F894DEBF0FBECDBFCF91DF910895DF934B
:10342000CF9300D00F92CDB7DEB79B838A831982EA
:103430000EC08981282F30E08A819B81FC01E20F38
:10344000F31F80810E94841789818F5F898389811E
:10345000282F30E08A819B81FC01E20FF31F8081DD
:10346000882339F70F900F900F90CF91DF91089537
:10347000DF93CF9300D000D00F92CDB7DEB78A8311
:103480006B838A81282F30E03D832C838C819D8142
:1034900081309105C1F02C813D81223031052CF421
:1034A0008C819D81009761F019C02C813D81223073
:1034B000310569F08C819D818330910561F00EC0EA
:1034C0008B8189830BC08B81805C898307C08B8152
:1034D000805F898303C08B81805B89838981806859
:1034E0000E9495150F900F900F900F900F90CF9115
:1034F000DF910895DF93CF9300D000D0CDB7DEB732
:1035000089836A835C834B8389816A810E94381A2C
:103510008B819C810E940F1A0F900F900F900F903B
:10352000CF91DF910895DF93CF93CDB7DEB7629748
:103530000FB6F894DEBF0FBECDBF9A8B898B8989F9
:103540009A899E012F5F3F4FB9014AE050E00E94E7
:103550000B1DCE0101960E940F1A62960FB6F894C9
:10356000DEBF0FBECDBFCF91DF910895DF93CF9324
:10357000CDB7DEB781E00E949515CF91DF91089518
:103580001F920F920FB60F9211242F933F934F93D8
:103590005F936F937F938F939F93AF93BF93EF93BB
:1035A000FF93DF93CF93CDB7DEB780915801909111
:1035B0005901009729F0E0915801F09159010995BE
:1035C000CF91DF91FF91EF91BF91AF919F918F913B
:1035D0007F916F915F914F913F912F910F900FBE0F
:1035E0000F901F9018951F920F920FB60F921124F3
:1035F0002F933F934F935F936F937F938F939F93FB
:10360000AF93BF93EF93FF93DF93CF93CDB7DEB725
:103610008091580190915901009729F0E09158014B
:10362000F09159010995CF91DF91FF91EF91BF91F1
:10363000AF919F918F917F916F915F914F913F914A
:103640002F910F900FBE0F901F901895DF93CF937F
:1036500000D0CDB7DEB79A838983EFE4F0E088E04D
:103660008083AEE4B0E0EEE4F0E08081982F987FB4
:10367000E981FA818481892B8C93ACE4B0E0E98103
:10368000FA818081918111969C938E93E981FA81D0
:103690008581882341F4A9E5B0E0E9E5F0E0808187
:1036A00084608C931CC0E981FA8185818130B9F4F2
:1036B000AEE4B0E0EEE4F0E0808188608C93AAE4B0
:1036C000B0E0E981FA818281938111969C938E9377
:1036D000A9E5B0E0E9E5F0E0808180618C930F908E
:1036E0000F90CF91DF910895DF93CF93CDB7DEB7E1
:1036F000AEE4B0E0EEE4F0E08081887F8C93EAE411
:10370000F0E011821082ECE4F0E011821082CF919F
:10371000DF910895DF93CF9300D0CDB7DEB79A83C2
:10372000898389819A8190935901809358010F90E0
:103730000F90CF91DF910895DF93CF9300D000D009
:10374000CDB7DEB79C838B831A821982EBE2F0E05F
:1037500082E08083EAE2F0E088E18083A0E4B0E0E8
:10376000E0E4F0E0808180688C93A0E4B0E0E0E4E5
:10377000F0E08081282F2F7CEB81FC818181882FD4
:1037800090E082959295907F9827807F9827822B52
:103790008C93A0E4B0E0E0E4F0E08081282F287F63
:1037A000EB81FC818281882F90E0880F991F880F20
:1037B000991F880F991F822B8C93A0E4B0E0E0E45E
:1037C000F0E08081282F267FEB81FC818081882F8B
:1037D00090E0880F991F822B8C93EB81FC81838171
:1037E0009481A581B681880F991FAA1FBB1F880FDE
:1037F000991FAA1FBB1F880F991FAA1FBB1F9C01DF
:10380000AD0180E092E1AAE7B0E0BC01CD010E94E9
:10381000B21CDA01C90101979A838983E9E2F0E0D9
:1038200089818083E0E4F0E089819A81892F99275A
:1038300080830F900F900F900F90CF91DF9108959C
:10384000DF93CF930F92CDB7DEB78983EBE2F0E041
:103850008081882F90E0807290700097B9F3ECE23D
:10386000F0E0898180830F90CF91DF910895DF93FD
:10387000CF93CDB7DEB7EBE2F0E080818823DCF7B1
:10388000ECE2F0E08081CF91DF910895DF93CF9358
:1038900000D00F92CDB7DEB79B838A8319820EC00A
:1038A0008981282F30E08A819B81FC01E20FF31F80
:1038B00080810E94201C89818F5F89838981282FC4
:1038C00030E08A819B81FC01E20FF31F8081882315
:1038D00039F70F900F900F90CF91DF9108950F93CC
:1038E0001F93DF93CF9300D00F92CDB7DEB79B83AA
:1038F0008A8319828981282F30E08A819B818C01FB
:10390000020F131F0E94371CF80180830FC08981AA
:103910008F5F89838981282F30E08A819B818C0188
:10392000020F131F0E94371CF80180838981282F02
:1039300030E08A819B81FC01E20FF31F808183329A
:1039400031F78981282F30E08A819B81FC01E20FC9
:10395000F31F10820F900F900F90CF91DF911F9166
:103960000F910895A1E21A2EAA1BBB1BFD010DC0E9
:10397000AA1FBB1FEE1FFF1FA217B307E407F5071F
:1039800020F0A21BB30BE40BF50B661F771F881FFB
:10399000991F1A9469F760957095809590959B0191
:1039A000AC01BD01CF0108952F923F924F925F92DB
:1039B0006F927F928F929F92AF92BF92CF92DF923F
:1039C000EF92FF920F931F93CF93DF93CDB7DEB7A4
:1039D000CA1BDB0B0FB6F894DEBF0FBECDBF099438
:1039E0002A88398848885F846E847D848C849B848F
:1039F000AA84B984C884DF80EE80FD800C811B819D
:103A0000AA81B981CE0FD11D0FB6F894DEBF0FBECB
:103A1000CDBFED010895FB019F01E8944230C4F051
:103A20004532B4F44A3029F497FB1EF49095819501
:103A30009F4F642F77270E943C1D805D8A330CF0D6
:103A4000895D8193CB010097A1F716F45DE2519354
:103A50001082C9010C942C1DDC01FC01672F7191AF
:103A60007723E1F7329704C07C916D937083629164
:103A7000AE17BF07C8F30895AA1BBB1B51E107C0CF
:103A8000AA1FBB1FA617B70710F0A61BB70B881FEE
:103A9000991F5A95A9F780959095BC01CD0108957D
:043AA000F894FFCFC8
:103AA40070617373776F726473206E6F74206D61CD
:103AB40074636865640050617373776F726420691E
:103AC400732000736176656400706C7A20656E748F
:103AD400657220706173733A00706C7A20656E743D
:103AE4006572203D20746F00636F6E74696E756536
:103AF40000706C7A2072652D656E7465722074682E
:103B0400650073616D6520706173733A002B203A10
:103B1400204F70656E20446F6F72002D203A204351
:103B240068616E6765205061737300446F6F722023
:103B3400697300556E6C6F636B696E6700446F6FD9
:103B440072206973204F70656E656400446F6F72F4
:103B5400206973204C6F636B696E67004552524F46
:103B6400522C416C61726D206D6F64650069732025
:103B7400616374697661746564000000000000008C
:103B84000000030000802500000000841E050100E1
:063B940000841E05010083
:00000001FF
